:020000040000FA
:10000000007D002031040000390400008D600000F4
:100010003D0400003F040000410400000000000017
:100020000000000000000000000000004304000089
:1000300045040000000000004704000049040000DF
:100040004B0400004D0400004F0400005104000068
:100050005304000055040000570400005904000038
:100060005B0400005D0400005F0400006104000008
:1000700063040000650400006704000069040000D8
:100080006B0400006D0400006F04000071040000A8
:100090007304000075040000770400007904000078
:1000A0007B0400007D0400007F0400008104000048
:1000B0008304000085040000870400008904000018
:1000C0008B0400008D0400008F04000091040000E8
:1000D00093040000950400009704000099040000B8
:1000E0009B0400009D040000000000009F0400002D
:1000F000A1040000A3040000A5040000A704000060
:10010000A9040000AB040000AD040000AF0400002F
:100110000000000000000000B1040000B304000073
:10012000B5040000B7040000B9040000BB040000DF
:10013000BD040000BF040000C1040000C3040000AF
:1001400000000000000000000000000000000000AF
:10015000C5040000C7040000C9040000CB0400006F
:10016000000000000000000000000000000000008F
:10017000000000000000000000000000000000007F
:10018000000000000000000000000000000000006F
:10019000000000000000000000000000000000005F
:1001A000000000000000000000000000000000004F
:1001B000CD040000CF040000D1040000D3040000EF
:1001C000D5040000D7040000D9040000DB040000BF
:1001D000DD040000DF040000E1040000E30400008F
:1001E000E5040000E7040000E9040000000000004E
:1001F00000000000EB040000ED040000EF0400002C
:10020000F1040000F3040000000000000000000002
:10021000F5040000F7040000F9040000FB040000EE
:10022000FD040000FF0400000105000003050000BC
:100230000505000007050000090500000B0500008A
:100240000D0500000F05000011050000130500005A
:100250001505000017050000190500001B0500002A
:100260001D0500001F0500002105000000F002F838
:1002700000F0B6F80AA090E8000C82448344AAF18A
:100280000107DA4501D100F0ABF8AFF2090EBAE888
:100290000F0013F0010F18BFFB1A43F001031847BA
:1002A00000E3020020E302000A444FF0000C10F8C3
:1002B000013B13F0070408BF10F8014B1D1108BFE4
:1002C00010F8015B641E05D010F8016B641E01F884
:1002D000016BF9D113F0080F1EBF10F8014BAD1CD4
:1002E0000C1B09D16D1E58BF01F801CBFAD505E0F2
:1002F00014F8016B01F8016B6D1EF9D59142D6D34C
:10030000704700000023002400250026103A28BF73
:1003100078C1FBD8520728BF30C148BF0B60704777
:100320006E2900F00085702901F05980662929F0B6
:100330006786652929F06486672929F06186612925
:1003400029F0608603681B0A28BF41F080016929F3
:1003500000F0AA81642900F0A781752900F0A4812A
:100360006F2900F0E787782901F02580E92900F05E
:100370008187E42900F07E87F52900F07B87EF294B
:1003800000F0E487F82901F024800368DB0928BF26
:1003900041F08001632901F06182732901F06682D6
:1003A000E32901F07182F32901F076820020704781
:1003B0001FB529F0D6FD9DE8030000F0DFFB01F03A
:1003C0001DF804000020002128F07EFE401C606023
:1003D0000020002128F062FEE0601FBD10B510BDB6
:1003E00001F0FBFA1146FFF7E3FF1DF06BFE01F091
:1003F00021FB03B4FFF7F2FF03BC16F057FB00002C
:100400000138FDD170470000EFF3108072B67047DD
:10041000EFF310807047EFF3108062B6704730BF83
:10042000704780F311887047EFF311807047000028
:100430003F4880473F480047FEE7FEE7FEE7FEE70C
:10044000FEE7FEE7FEE7FEE7FEE7FEE7FEE7FEE784
:10045000FEE7FEE7FEE7FEE7FEE7FEE7FEE7FEE774
:10046000FEE7FEE7FEE7FEE7FEE7FEE7FEE7FEE764
:10047000FEE7FEE7FEE7FEE7FEE7FEE7FEE7FEE754
:10048000FEE7FEE7FEE7FEE7FEE7FEE7FEE7FEE744
:10049000FEE7FEE7FEE7FEE7FEE7FEE7FEE7FEE734
:1004A000FEE7FEE7FEE7FEE7FEE7FEE7FEE7FEE724
:1004B000FEE7FEE7FEE7FEE7FEE7FEE7FEE7FEE714
:1004C000FEE7FEE7FEE7FEE7FEE7FEE7FEE7FEE704
:1004D000FEE7FEE7FEE7FEE7FEE7FEE7FEE7FEE7F4
:1004E000FEE7FEE7FEE7FEE7FEE7FEE7FEE7FEE7E4
:1004F000FEE7FEE7FEE7FEE7FEE7FEE7FEE7FEE7D4
:10050000FEE7FEE7FEE7FEE7FEE7FEE7FEE7FEE7C3
:10051000FEE7FEE7FEE7FEE7FEE7FEE7FEE7FEE7B3
:10052000FEE7000004480549054A064B70470000F5
:10053000E96301006D02000000700020007D0020D2
:100540000073002000730020704770B5064600F06D
:10055000F9FA056806F10B0020F00704B4429CBFCD
:10056000002070BD2B466A68BAB11068A04210D353
:1005700004F1080188423CBF5068586007D35168B5
:10058000101941601168091B016058601460101D4A
:1005900070BD13465268002AE7D12146284600F074
:1005A000D9FA0028DED170BD70B50446051F00F0F1
:1005B000C9FA0068002C14BF446870BD002C18BF35
:1005C000AC423CBF20466468F8D301680A18AA42CE
:1005D00018BF456003D12A680546114401602868A8
:1005E0004119A1421CBF6C6070BD616869602168DF
:1005F0000844286070BD00007CB51D4616460C00FE
:10060000009001D02044401E074B7B442A46694697
:100610000190304600F0AFFD05461CB10020694650
:1006200000F0BCFD28467CBD990B00000FB41CB542
:10063000084B06AA7B4469460090059800F09BFD94
:1006400004460020694600F0A9FD20461CBC5DF868
:1006500014FB0000650B000070B504468569006856
:10066000C10601D5302600E02026C00707D070BDA6
:10067000D4E9012130469047206A401C20626D1E5B
:10068000F6D570BD70B5044685690078C00707D1FE
:1006900070BDD4E9012120209047206A401C2062CF
:1006A0006D1EF6D570BD00002DE9F0410646002410
:1006B00010687529314616A510D000F0A0FA002860
:1006C00002DA404213A507E031688A0701D512A576
:1006D00002E0490704D511A5012401E000F098FAD1
:1006E00000210A2206F1240709E0B0FBF2FCB0FB6E
:1006F000F2F302FB1C00303078541846491C0028E5
:10070000F3D123462A463046BDE8F04100F0B2BAA4
:10071000000000002D0000002B0000002000000061
:100720002DE9F05F894604464FF0000ADFF874B106
:10073000FB44C0F820A02046E1688847002874D018
:10074000252806D0D4E901219047206A401C206268
:10075000F1E700265F462046E168884720280546E5
:1007600007DB312D05D2781910F8200C08B10643AB
:10077000F1E7B00701D526F00406C4F81CA0002755
:10078000C4F818A02A2D09D0284628F013F838B349
:1007900004EB8708303DC8F8185019E059F8041BDD
:1007A000204604EB87029161E1688847012F0546E6
:1007B00018D1E069002820DA26F020061DE0D8F8DC
:1007C000180000EB800005EB40003038C8F8180036
:1007D0002046E1688847054627F0ECFF0028EED167
:1007E000012F0AD02E2D08D12046E16888477F1CB2
:1007F0000546022F46F02006C4DBA069002803DA74
:10080000404246F00106A061F00701D026F0100634
:100810006C2D0BD0682D09D04C2D39D06A2D35D0D8
:10082000742D35D07A2D33D016E038E0E1682F46AC
:1008300020468847B842054609D16C2F26D04FF490
:100840008060E168064320468847054604E06C2F37
:100850001AD04FF4807006430DB3A5F1410019285A
:1008600002D8203546F400664A46294620462660CE
:100870004E46FFF755FD80B101280BD0F61D26F03E
:10088000070000F1080956E74020E4E78020D8E798
:100890000020D6E706F104094DE7284652E7206A12
:1008A000BDE8F09F3CA2020040EA010310B59B079F
:1008B0000FD1042A0DD310C808C9121F9C42F8D0CA
:1008C00020BA19BA884201D9012010BD4FF0FF307B
:1008D00010BD1AB1D30703D0521C07E0002010BD91
:1008E00010F8013B11F8014B1B1B07D110F8013B1D
:1008F00011F8014B1B1B01D1921EF1D1184610BDFE
:1009000010B5431C02E010F8011B71B18107FAD148
:100910004FF0013202C88C1A8C4314EAC211F9D08C
:10092000C01A0A0603D0C01E10BDC01A10BD0A04AA
:1009300001D0801E10BD0902FCD0401E10BD032A4C
:1009400040F2308010F0030C00F0158011F8013BEC
:10095000BCF1020F624498BF11F801CB00F8013BD3
:1009600038BF11F8013BA2F1040298BF00F801CB97
:1009700038BF00F8013B11F0030300F02580083A6E
:10098000C0F0088051F8043B083A51F804CBA0E8C5
:100990000810F5E7121D5CBF51F8043B40F8043B1A
:1009A000AFF30080D20724BF11F8013B11F801CB4F
:1009B00048BF11F8012B24BF00F8013B00F801CB20
:1009C00048BF00F8012B704710B5203AC0F00B80EB
:1009D000B1E81850A0E81850B1E81850A0E8185035
:1009E000203ABFF4F5AF5FEA027C24BFB1E81850AB
:1009F000A0E8185044BF18C918C0BDE810405FEA0D
:100A0000827C24BF51F8043B40F8043B08BF704788
:100A1000D20728BF31F8023B48BF11F8012B28BF8D
:100A200020F8023B48BF00F8012B70474FF000024E
:100A30000429C0F0128010F0030C00F01B80CCF1F0
:100A4000040CBCF1020F18BF00F8012BA8BF20F85E
:100A5000022BA1EB0C0100F00DB85FEAC17C24BFB2
:100A600000F8012B00F8012B48BF00F8012B70475C
:100A70004FF0000200B5134694469646203922BF37
:100A8000A0E80C50A0E80C50B1F12001BFF4F7AF82
:100A9000090728BFA0E80C5048BF0CC05DF804EB64
:100AA000890028BF40F8042B08BF704748BF20F8D2
:100AB000022B11F0804F18BF00F8012B7047000087
:100AC00030B44FF0013C50F8042B51F8043BCCFA01
:100AD00052F4D51A20D1FCB950F8042B51F8043B3C
:100AE000CCFA52F4D51A17D1B4B950F8042B51F8F6
:100AF000043BCCFA52F4D51A0ED16CB950F8042B41
:100B000051F8043BCCFA52F4D51A05D1002CDAD0B6
:100B100030BC4FF00000704729BAB1FA81F111F0F2
:100B20001801D1F120008440F2D1CA40CB4012F02C
:100B3000FF0213F0FF0330BCD01A704770477047B4
:100B40007047704700487047D809002070477047C9
:100B50007047704738B504460A4600206946AFF32F
:100B60000080002808BF38BD02460099204600F0EA
:100B70004DFC012038BD012000F028BFF8B5AFF3CF
:100B80000080054600200C46102000BF0646A8192C
:100B9000A0420DD9324669460020AFF3008007001D
:100BA00008BF00F013FF0098A04218BF0546C41903
:100BB000FFF7C8FF05600746F01D20F00700461943
:100BC000284600F00AF8B44208BFF8BDA21B31461F
:100BD0003868BDE8F84000F019BC00210160C0E9A8
:100BE000011070471020704710B500F00BFC006832
:100BF00010BD10B5044600F005FC046010BD096886
:100C00004A0501D540B27047C905FCD500B270470E
:100C100009684A0501D5C0B27047C905FCD580B244
:100C2000704770B50C460546012A05D02878800625
:100C300000D5EA69002302E0012305E05B1C934232
:100C400002D2E05C0028F9D1A869E618C01AA861B0
:100C5000286A184428622846FFF7FEFC04E0D5E91C
:100C6000012114F8010B9047B442F8D32846FFF74E
:100C700009FD70BD2DE9F0470D46994692460446A0
:100C800000F124080168880604D5E06921F010010C
:100C9000216000E00120A84201DD471B00E00027A1
:100CA000A1697A1902EB0900081AA0612078C00630
:100CB00002D42046FFF7D0FC002608E0D4E9012149
:100CC0001AF806009047206A401C761C20624E45A8
:100CD000F4DB2078C0060AD52046FFF7BDFC06E00D
:100CE000D4E9012130209047206A401C2062381E40
:100CF000A7F10107F4DC07E0D4E9012118F80500A9
:100D00009047206A401C2062281EA5F10105F3DCF3
:100D10002046FFF7B7FC2078000602D50220BDE888
:100D2000F0870120FBE711680268006A530501D5CE
:100D300008700AE0D30501D5088006E0130603D544
:100D4000C217C1E9000200E00860012070472DE9E8
:100D5000FF4F0C461E464FF0FF378BB0D2E9000123
:100D6000DDF860800A908A46C1F30A5505B93D4610
:100D7000002108464FF00000BAF1000F00F44000D7
:100D800005DA00EB80004FF4400101EA50004FEA21
:100D90009059B9F1010F00DDB9460A9850EA4A00AE
:100DA0000ED044F61050A5F2FF3545432F14B8F18C
:100DB000000F1ED07542291E1EDDC9F100021CE085
:100DC000B8F1010F4FF0000001D0302103E0F243F1
:100DD00005E02154401CB042FBDB304600220021DC
:100DE00021540B99C1F80880C1E900200FB0BDE87B
:100DF000F08FBD1B6D1CDEE74A4600DA694206A88B
:100E000000F04EFD06AB93E8070003AB83E8070054
:100E100050460A9920F05EFD8DE80700A0F50050CD
:100E20001F3800900398002D0ADD42F21F014A4648
:100E30000844002303A90390684620F0C7FF09E097
:100E4000A0F500504A461F38002303A903906846C6
:100E500020F0D1FF8DE807000004000C03D04FF014
:100E6000FF30410800E01046B8F1000F03D0002227
:100E7000009215461EE0751E05D400F0E1FA3032EE
:100E800062556D1EF9D5B3460122084302D00022F7
:100E90007F1C04E02078302801D100227F1E002A28
:100EA000099784D01DE0112D07DA00F0C9FA30321D
:100EB00062556D1C50EA0102F5D1084302D000983A
:100EC000C8B10EE00021681E05E0235C625C63543B
:100ED0002254401E491C8142F7DBAB46A81B401E32
:100EE0000990002004F80B000B98099AC0F80880BC
:100EF000C0E9002B7AE711264FF0000857E72DE9EB
:100F0000F04F88460446D21D22F0070191B0D1E986
:100F10000001CDE90A0124F0C1FB02460B98C00F85
:100F200001D02D2007E02068810701D52B2002E0A9
:100F3000202101EAC000032A099001D0072A05DB1D
:100F400003464146204600F03FFC0BE12078800636
:100F500001D5E06900E00620B8F1650F814606D0B2
:100F6000B8F1660F18D0B8F1670F70D131E00020EA
:100F7000B9F1110F009001DB112301E009F1010328
:100F80000AAA01A90CA8FFF7E2FEDDE90C70002611
:100F900009F10105834647E001204B4600904FF0E0
:100FA00000470AAA01A90CA8FFF7D1FEDDE90DB0A0
:100FB0000C995D46002610B909F101000D18B9EB36
:100FC000050003D4C0F1FF3609F10105A5EB0900C6
:100FD0002BE0B9F1010F01DA4FF001090020B9F15E
:100FE000110F0090484601DD112300E003460AAAD4
:100FF00001A90CA8FFF7ABFEDDE90C704D460026F9
:101000008346207800070AD4AB4500DA5D4601A884
:10101000012D04DD411911F8011C302907D04F457D
:1010200002DA17F1040F04DA012082460FE06D1E88
:10103000EEE7002F02DCED1B3E4403E0781CA842E3
:1010400000DD7D1CB81B00F1010A4FF0004720783D
:10105000000703D4AA4501DB4FF0FF3A0021B7F1A6
:10106000004F0DF143088DF8431024D002202B23AC
:10107000002F01DA7F422D230A21021EA0F1010078
:1010800000DC5FB197FBF1FC97FBF1F201FB1C7CEC
:1010900017460CF1300C08F801CDEEE7A8F101007D
:1010A00003702188090501D5452100E06521A0F1E3
:1010B000010800F8011C09980FA9A1EB0807FF1D02
:1010C00000B10120411901EBEA70A1693844081A06
:1010D000401EA0612078C00602D42046FFF7BCFA6B
:1010E000099828B1D4E901219047206A401C206268
:1010F0002078C00622D52046FFF7AEFA1EE0002E6B
:1011000004DBB34502DD01A8805D00E03020D4E9B6
:1011100001219047206A401C2062761CAAF1010040
:101120005FEA000A0AD100F069F9C0680168405C12
:10113000D4E901219047206A401C2062281EA5F1B5
:101140000105DCDC07E0D4E9012118F8010B904728
:10115000206A401C2062381EA7F10107F3DC2046FC
:10116000FFF790FA032011B041E6000001694A1C24
:1011700002610878704700B58FB0CDE901310021D8
:10118000059105497944CDE9031011466846FFF7FA
:10119000C7FA0FB000BD0000E5FFFFFF0A6802F8C4
:1011A000010B0A607047D1E900239A4202D2531C16
:1011B0000B601070704700002DE9FF5F15468A46EE
:1011C0000446DFF8AC80F8440027D8E900103E461A
:1011D000CDE9001010E03AF816106A4602A800F0B7
:1011E000D1FB411C07D02178890603D5E269391863
:1011F00091420DD80744761C2078800602D5E0691C
:10120000B84205DDAE42E6DB3AF816000028E2D12E
:10121000A069C01BA0612046FFF71EFAD8E90010A4
:10122000CDE90010002017E03AF818106A4602A82D
:1012300000F0A8FBB0F1FF3F81460BD000250DF177
:10124000080B05E0D4E901211BF8050090476D1C4F
:101250004D45F7D308F10100B0428046E4DB206A37
:10126000384420622046FFF70DFABDE8FF9F0000DA
:10127000D69902002DE9F0418046D21D22F00702E6
:101280000025D2E90002F52915A614D0011E72F13D
:10129000000106DA0023D0EB030063EB020211A683
:1012A00008E0D8F800108B0701D50FA602E0490727
:1012B00001D50EA601251146002408F1240704E0FB
:1012C00000F0BEF830323A55641C50EA0102F7D102
:1012D0002B46324621464046BDE8F041FFF7CABCE6
:1012E000000000002D0000002B0000002000000086
:1012F00030B4002100F1240408E002F00705D20810
:10130000303542EA4372DB086554491C52EA030552
:10131000F3D10468002310A2250708D504F02004A7
:101320000C4304D0C46901230CA2641EC46130BC08
:10133000FFF7A0BC10B5044621461068FFF768FC13
:1013400002462046BDE810400023D1E7D21D22F01E
:101350000701D1E90023CBE70000000030000000C6
:10136000F0B40D460188090502D5214C7C4402E009
:101370001F4C7C440E34002100F1240608E002F0EA
:101380000F071209E75D42EA03721B097754491CF3
:1013900052EA0307F3D102780023120704D5702D17
:1013A00006D009B1022311342246F0BCFFF762BC1B
:1013B00001231034F8E770B504460D462146106845
:1013C000FFF726FC024629462046BDE87040002370
:1013D000C6E7D21D22F00703D3E90023C0E7036864
:1013E000126843F0200303600823C3610023B7E7BA
:1013F0003898020000487047D00900200048704724
:10140000F009002000487047D009002003464068DA
:101410008C46002818BF88423CBF03464068F8D37A
:1014200018681844884207D00CF1030020F0070028
:10143000001D411A521A0146081D0A60FFF7B4B890
:1014400030B5B0F10A0271F100034FEA900E4EEA96
:10145000817EB0EB0E0061EB91014FEA101E4EEA67
:10146000017E10EB0E0041EB11114FEA102E4EEAF7
:10147000016E10EB0E0041EB11214FEA104E4EEAC7
:10148000014E10EB0E0041EB1141401841F10001FB
:101490004FEAD00040EA41704FEAD1014FEA81049F
:1014A00044EA907410EB800544EB01046D1944EBA1
:1014B0000404521BA3414FF0000348BF0A3200D579
:1014C00030BD401C41F1000130BD00002DE9F04F5E
:1014D00004460D46D21D22F0070089B0D0E90097DE
:1014E0004846394624F0DAF80246F80F01D02D2399
:1014F00007E02068810701D52B2302E0202101EAC3
:10150000C0038DF820300BB1012000E00020032A39
:10151000824601D0072A04DB2946204600F054F910
:101520003FE12078800601D40D2500E0E569C7F38E
:101530000A560D2D49DA00214FEA175B08464FF095
:101540000000002F00F4400007DA00EB80004FF4A9
:10155000400100EBD07001EA60008115012901DD36
:101560004FF0FF3100224FEA850CBCF1180F06D373
:101570001346ACF118004FF08052C24003E04FF424
:10158000801323FA0CF30CF10C0CBCF1200F04D3E4
:10159000ACF1200C09FA0CF001E007FA0CF000297C
:1015A0004FF0004801DD18B90FE00ED140450CD3D3
:1015B00019EB02095F4121B9404502D19F4329EA55
:1015C0000209BBEB175F00D0761C2088000502D50E
:1015D0007B48784402E07A487844193808AA3023D6
:1015E00002F80A30037C0AF10101002E0AF1020A16
:1015F00053546A4602DC4FF0300101E04FF03101F4
:101600004FF001088DF8001002D0A6F2FF3603E07B
:1016100059EA470100D06B4E002D02DC2178090702
:1016200004D54FF002082E218DF80110C446002188
:101630000BE0C7F303433F01C35C491C6D1E02F876
:101640000830052908F1010801DA002DF1DC00213C
:101650000CE000EB1973491C1B786D1E082902F879
:1016600008304FEA091908F1010801DA002DF0DC11
:1016700021688B0602D516E0A8F10108E04505DDDA
:1016800002EB080313F8013C302BF5D0B8F1000F42
:1016900009DD02EB080313F8013C2E2B03D10907E7
:1016A00001D4A8F10108002D05DD3E2102F8081043
:1016B0006D1E08F10108407C002E02F8080008F1B8
:1016C000010804DA2D20764202F8080002E02B20FF
:1016D00002F808000A214FF47A70864208F10108E6
:1016E0000BDB96FBF0F3303302F8083096FBF0F397
:1016F00008F1010800FB136601E0642E0CDB642096
:1017000096FBF0F3303302F8083096FBF0F308F163
:10171000010800FB136601E00A2E06DB96FBF1F0E0
:10172000303002F8080008F1010896FBF1F001FBE7
:101730001060303002F80800A16908F1010808EBD8
:10174000050202EB0A00081AA0612078C00602D444
:101750002046FEF781FF216A08AE01EB0A002062F5
:1017600004E0D4E9012116F8010B9047BAF1010A0F
:10177000F7D22078C00602D52046FEF76DFF6E46F0
:1017800009E016F8010B3E280FD0D4E9012190475B
:10179000206A401C2062B8F10108F2D22046FEF710
:1017A00071FF09B00320BDE8F08F206A2844206251
:1017B00003E0D4E90121302090476D1EEBD3F8E718
:1017C000F597020002FCFFFF2DE9F0411F46044699
:1017D00003260168072A01F4006004DB08B116A59E
:1017E00005E016A503E008B115A500E015A521F058
:1017F00010002060A069C01EA0610FB1401EA06152
:101800002046FEF729FF4FB1D4E901213846904721
:10181000206A401C2062C01C206206E0206AFAE7B1
:10182000D4E9012115F8010B9047761EF8D2204625
:10183000FEF728FFBDE8F0814E414E006E616E005C
:10184000494E4600696E660010B5436913B1AFF3A7
:10185000008001E0FFF7E5F9012010BD127800F1EA
:1018600024010A7000224A700122EDE711684FF04E
:10187000FF32E9E710B5436913B1AFF3008001E02F
:10188000FFF79AFC012010BD128800F12401828428
:101890000022C2840122EDE711684FF0FF32E9E730
:1018A0002DE9F047814616468AB0354878440DC880
:1018B0008DE80D0032487844801C03AC0DC884E8E4
:1018C0000D0041F69B300844372190FBF1F290FB6C
:1018D000F1F5A5F1800501FB12041B3C02D5644221
:1018E000012000E00020DFF898A080460027FA449D
:1018F000AAF1BE0A0EE0E0070AD03246684607EBBE
:10190000470101230AEB810120F075FA8DE80700F9
:1019100064107F1C002CEED1194F7F44AE3F19E0BC
:10192000E80715D007EB04100DF1180A90E80E0037
:101930008AE80E00C068F04201D19819089032463A
:10194000012306A903A820F056FA03AB83E8070099
:101950006D10641C002DE3D14FF00103324669463F
:10196000B8F1000F03A802D020F030FA01E020F017
:1019700042FAC9E90001C9F808200AB0BDE8F087B9
:10198000AC9502002DE9F04116460C46054600F0E4
:1019900049F8036893F80101012807D0FF2C12D8F9
:1019A000185D80B101202C70BDE8F081D3F80701EB
:1019B0003246214603F20713C7182846BC46BDE845
:1019C000F041002360474FF0FF30EDE710B500F025
:1019D0003FF8BDE8104000F036B87546FFF70AFD45
:1019E000AE4605006946534620F00700854618B00C
:1019F00020B5FEF797FDBDE820404FF000064FF000
:101A000000074FF000084FF0000BAC46ACE8C009EF
:101A1000ACE8C009ACE8C009ACE8C00921F0070196
:101A20008D46704710B5FFF7E9FC001D10BD00BFE3
:101A30009976020010B50446AFF300802046BDE859
:101A40001040FEF7D6BC002801D015F02FB8704723
:101A500010B5012805D0002103A000F021F80120D5
:101A600010BD09A1F8E7000053494752544D454DB8
:101A70003A204F7574206F662068656170206D652F
:101A80006D6F7279000000003A2048656170206D2A
:101A9000656D6F727920636F727275707465640022
:101AA00070B505460C460A2000E06D1C15F000F8E4
:101AB00035B128780028F8D102E0641C14F0F8FF52
:101AC00014B120780028F8D1BDE870400A2014F045
:101AD000EFBF000010B52DED028B48F2AC04C4F24C
:101AE00003042068C0053BD42068C0051AD400BF99
:101AF00054F8040C2168C9055EBF54F8040C216831
:101B00005FEAC15109D454F8040C2168C90504D412
:101B100054F8040C2168C905EAD500EE100AB8EEA5
:101B2000400A01E09FED130A9FED131A80EE010AAF
:101B30009FED121A20EE018A02F01AF841F60050C9
:101B4000C2F2000090ED001A28EE000A9FED0C2A68
:101B500030EE410A20EE020A31EE000A80ED000A62
:101B6000A4F1AC000321BDEC028BBDE8104020F0D5
:101B700082BA00BF0000000000F07F4533335340BD
:101B80000AD7A33C40F6EC41C2F2000108780128D4
:101B90004FF0000018BF70474A780870012A1CBF38
:101BA000012070470020487001207047B0B540F612
:101BB000EC45C2F20005287878B918F02FFE01280C
:101BC0000BD140F29000C2F200000A210124017002
:101BD0002C7000F017F82046B0BD0020B0BD00000A
:101BE00080B540F68441C2F20001487801284FF0E8
:101BF000000018BF80BD4870FFF7C4FF12F094FFCB
:101C0000012080BD2DE9F04381B02DED068B40F61B
:101C10008445C2F20005687830B100242046BDEC4E
:101C2000068B01B0BDE8F08318F006FE01284FF0E6
:101C30000004F3D10120687018F0E2FD13F0ECFA13
:101C40000020012185ED060AAC7002F05BF800204F
:101C50000221B0EE408A02F055F800200321B0EED8
:101C6000409A02F04FF800200421B0EE40AA02F0A2
:101C700049F843F28C454DF2A546C2F20005C5F283
:101C800068360120012185ED058A85ED069A85EDEE
:101C900007AA85ED080AC5E90966C5E90B66C5E925
:101CA0000D66C5E90144C5E9034402F02BF80120A3
:101CB0000221B0EE408A02F025F801200321B0EEA7
:101CC000409A02F01FF801200421B0EE40AA02F071
:101CD00019F80220012185ED148A85ED159A85ED0C
:101CE00016AA85ED170AC5E91866C5E91A66C5E999
:101CF0001C66C5E91044C5E9124402F003F802204D
:101D00000221B0EE408A01F0FDFF02200321B0EE77
:101D1000409A01F0F7FF02200421B0EE40AA01F042
:101D2000F1FF85ED238A85ED249A85ED25AA85EDC1
:101D3000260AC5E92766C5E92966C5E92B66C5E90E
:101D40001F44C5E9214401F0BDFF0020B0EE408AE8
:101D500001F0F0FFB7EE009A89EE081A41F2A8757B
:101D600043F23337002640F2000844F20009C2F281
:101D70000005C3F63377C4F22016C4F2FA38C4F271
:101D80009C59C5E90076C5E90289C5E906442C627B
:101D90002C6485ED048A85ED051A85ED110AC5E9E7
:101DA0000A44C5E90C4401F08DFF0120B0EE408AE1
:101DB00001F0C0FF89EE081A0220C5E91376C5E9D3
:101DC0001589C5E91944EC66C5F88C4085ED178A7C
:101DD00085ED240A85ED181AC5E91D44C5E91F449F
:101DE00001F0A8FF00204DF20A71C4F24830C3F69A
:101DF000A331C5F8B840C5F8D840C5E92676C5E98D
:101E00002800C5E92A10C5E92C4485ED370AC5E943
:101E10003044C5E9324401242046BDEC068B01B0B4
:101E2000BDE8F08340F68440C2F2000090ED080A5D
:101E30007047000040F68440C2F2000090ED070AAF
:101E40007047000080B52DED068BB0EE409A20EE75
:101E5000000A20EEA01A30EE01AAB0EE4A0AB0EE57
:101E6000608A25F0B6FEB4EE400AF1EE10FA1CD6F8
:101E70009FED141AB4EE410AF1EE10FA05DD81EE81
:101E8000000A20EE099A20EE088A40F68440C2F249
:101E900000004178012911BF002080ED079A80EDF4
:101EA000088A0120BDEC068B80BDB0EE4A0A25F001
:101EB00090FE9FED041AB4EE410AF1EE10FAE4DD53
:101EC000DDE700BFCDCC4C3F10B540F68444C2F2F4
:101ED0000004607801281CBF002010BDA07884EDAC
:101EE000060A68B118F08CFC13F096F943F28C40A6
:101EF000C2F2000080ED1F0A0020A070012010BD7A
:101F0000012010BD40F68441C2F20001487801284A
:101F100011BF002081ED090A012088707047000080
:101F200010B52DED028B40F68444C2F200046078B7
:101F3000012810D1B0EE408A18F062FC13F06CF961
:101F4000A07860B143F28C40C2F2000080ED1F0A1D
:101F50000020A07009E00020BDEC028B10BD43F210
:101F60008C40C2F2000090ED1F0A30EE080A84EDAA
:101F7000060A0120BDEC028B10BD000040F6844033
:101F8000C2F200004178012912BF002080ED050A4D
:101F90000120704740F68440C2F2000041780129D8
:101FA0001CBF00207047817801291CBF01207047A9
:101FB00002218170012070472DE9F04F81B02DED95
:101FC000108B84B0002004F04FF8417881B1817803
:101FD00071B190F8221008290AD8012202FA01F101
:101FE00011F4B47F04D090F82300002800F0998009
:101FF000012004F039F8417881B1817871B190F80D
:10200000221008290AD8012202FA01F111F4B47F42
:1020100004D090F82300002800F08580022004F00E
:1020200023F8417879B1817869B190F822100829B4
:1020300009D8012202FA01F111F4B47F03D090F81B
:102040002300002871D0032004F00EF8417879B104
:10205000817869B190F82210082909D8012202FA82
:1020600001F111F4B47F03D090F8230000285ED072
:10207000042003F0F9FF417879B1817869B190F8D3
:102080002210082909D8012202FA01F111F4B47FC3
:1020900003D090F8230000284BD0052003F0E4FF84
:1020A000417871B1817861B190F82210082908D87F
:1020B000012202FA01F111F4B47F02D090F823005A
:1020C000C8B3062003F0D0FF417871B1817861B1C7
:1020D00090F82210082908D8012202FA01F111F41F
:1020E000B47F02D090F8230038B3072003F0BCFF80
:1020F000417871B1817861B190F82210082908D82F
:10210000012202FA01F111F4B47F02D090F8230009
:10211000D0B140F6E0500021C2F20000416100F071
:1021200028BC002011E001200FE002200DE0032078
:102130000BE0042009E0052007E0062005E000BFD1
:10214000000000006F12833A0720C0B203F08CFF3A
:1021500040F66071C768C2F20001D1E90032574011
:10216000024652F8086F73403B4303D00378002BBC
:1021700001F06C8140F6606040F6E0520021C2F24E
:102180000002C2F2000092ED040AC0E90611506993
:1021900040F6E0540130C2F20004606118F064FFC0
:1021A000B0EE408A94ED040AB0EE609AB0EE41AA17
:1021B000B0EE61BA18F078FE40F6606546F2F04481
:1021C000B0EE414AB0EE402A1FED23CAB0EE603AAD
:1021D0000420C2F20004C2F2000594ED016A95EDFC
:1021E000061A94ED050A94ED027AD4ED030AD4EDB3
:1021F000041A31EE465A94ED091A207065EE002A51
:10220000B0EE4C5AF4EEC12AF1EE10FA0EDC94ED69
:102210000A1AB0EE4C5AB1EE411AF4EEC12AF1EEB0
:1022200010FAA4BFB0EE405AB0EE621AD4ED063AEE
:10223000D4ED0B4A67EE457A31EE47DA60EEC56AB7
:1022400061EE852A20EE850A67EE055A37EEE05AE0
:1022500036EEE11AF0EE4C6A63EE8D7AF4EEE47A33
:10226000F1EE10FA0EDCD4ED0C4AF0EE4C6AF1EE11
:10227000644AF4EEE47AF1EE10FAA4BFF0EE636A79
:10228000F0EE674A74EEE53AD4ED074A15EE260AF9
:10229000D4ED0D5A51EE262AF0EE4C6A33EEE05A98
:1022A00070EE613A24EE851AB4EEE51AF1EE10FAFA
:1022B0000EDC94ED0E5AF0EE4C6AF1EE455AB4EE97
:1022C000E51AF1EE10FAA4BFF0EE415AF0EE646A9E
:1022D00070EE254AD4ED085A43EEA62A94ED100A72
:1022E000D5ED076A1FED69DA94ED111A94ED125AD3
:1022F000042074EEE13AD4ED184A45EEA32AD4ED59
:10230000143A76EEC05A07EE0D6A00EE8D7A41EE71
:102310008D0A42EE8D1AD4ED132A84F83C0084ED28
:10232000016A84ED027AC4ED030AF0EE4C0A65EE10
:10233000A35AC4ED041AF4EEE45AF1EE10FA0EDCDE
:1023400094ED196AF0EE4C0AF1EE464AF4EEE45AC6
:10235000F1EE10FAA4BFF0EE630AF0EE654AD4ED98
:10236000156A74EEC17AD4ED1A3A65EE601A61EE20
:10237000605A22EEA06A25EE207A61EE204A71EEC4
:10238000E20A75EEC51AF0EE4C5A66EEA77AF4EE44
:10239000E37AF1EE10FA0EDCD4ED1B3AF0EE4C5A73
:1023A000F1EE633AF4EEE37AF1EE10FAA4BFF0EE48
:1023B000665AF0EE673A73EEE46AD4ED163A11EE1F
:1023C000A57AD4ED1C4A10EEA56AF0EE4C5A76EED2
:1023D000C51A77EE620A63EEA11AF4EEE41AF1EE82
:1023E00010FA0EDCD4ED1D4AF0EE4C5AF1EE644AC0
:1023F000F4EEE41AF1EE10FAA4BFF0EE614AF0EE4A
:10240000635A37EE247AD4ED171A00EEA56A01EE6E
:102410000D0A05EE0D1A02EE8D5AF0EE490A37EE5E
:10242000627A84ED100A84ED111A84ED125AB0EE2E
:10243000480AB0EE4A1A01EE876AF0EE4B1A46EEF1
:102440000D2AC4ED132AF0EE432AB0EE443A13F0FD
:1024500003F844F28406B0EE401A0420C2F20006EB
:1024600096ED014A96ED052A96ED025A96ED036A1D
:1024700096ED047A30EE443A96ED090A307063EE38
:10248000021AB0EE4C3AF4EEC01AF1EE10FA0EDC7D
:1024900096ED0A0AB0EE4C3AB1EE400AF4EEC01ADC
:1024A000F1EE10FAA4BFB0EE423AB0EE610AD6EDFA
:1024B000062A70EE456AD6ED0B3A26EE432A65EE03
:1024C000435A67EE031A26EE030A65EE034A35EE19
:1024D000C63A32EE472AF0EE4C5A62EEA66AF4EEA5
:1024E000E36AF1EE10FA0EDCD6ED0C3AF0EE4C5A3F
:1024F000F1EE633AF4EEE36AF1EE10FAA4BFF0EE07
:10250000625AF0EE663A73EEE42AD6ED073A13EE1D
:10251000250AD6ED0D4A52EE251AF0EE4C5A32EE4F
:10252000C63A70EE472A23EE832AB4EEE42AF1EE8F
:1025300010FA0EDC96ED0E3AF0EE4C5AF1EE434AEC
:10254000B4EEE42AF1EE10FAA4BFF0EE424AF0EE47
:10255000635A70EE243AD6ED084A42EEA51A96ED7B
:10256000100A05EE0D4A06EE0D5A96ED112A96ED6B
:10257000123A042007EE0D6A73EEC72AD6ED183A18
:1025800044EEA21AD6ED142A70EEC04A01EE8D7AFE
:10259000D6ED131A86F83C0086ED014A86ED025A04
:1025A00086ED036AB0EE4C6A64EEA24A86ED047AC8
:1025B000F4EEE34AF1EE10FA0EDC96ED194AB0EEB5
:1025C0004C6AF1EE443AF4EEE34AF1EE10FAA4BF9D
:1025D000B0EE626AF0EE643AD6ED154A73EEC26A66
:1025E000D6ED1A2A23EE467A62EE465A21EE864A44
:1025F00023EE065A62EE063A37EE616A35EEC37A8A
:10260000F0EE4C5A64EEA66AF4EEE26AF1EE10FACD
:102610000EDCD6ED1B2AF0EE4C5AF1EE622AF4EEF7
:10262000E26AF1EE10FAA4BFF0EE645AF0EE662A08
:1026300072EEE34AD6ED162A17EE255AD6ED1C3A6D
:1026400016EE254A34EEC37A35EE616AF0EE4C4A56
:1026500022EE877AB4EEE37AF1EE10FA0EDCD6EDD4
:102660001D3AF0EE4C4AF1EE633AB4EEE37AF1EE45
:1026700010FAA4BFF0EE473AF0EE624A35EE235A64
:1026800096ED177A06EE244A02EE0D0A03EE0D2AA5
:1026900001EE8D3A86ED100A35EE615AB0EE600A11
:1026A000F0EE410A86ED112A86ED123A07EE054A50
:1026B00044EE0D1AC6ED131A23F062FDD5ED068A1D
:1026C000B0EE409A23F018FFB0EE40AAD5ED079A7D
:1026D000B0EE490A25F078F9B0EE40BA95ED06EA79
:1026E000B0EE490A25F070F9B0EE408A95ED07FA90
:1026F00041F2C025B0EE490A29EE8BBAC2F20005BC
:1027000023F0FAFE95ED014A08EE8ABA95ED052A06
:1027100095ED091A95ED025A95ED036A95ED047A47
:10272000042028703BEE443A63EE020AB0EE4C3AC5
:10273000F4EEC10AF1EE10FA0EDC95ED0A1AB0EED5
:102740004C3AB1EE411AF4EEC10AF1EE10FAA4BF10
:10275000B0EE423AB0EE601AD5ED063A71EE455A47
:10276000D5ED0B1A26EE432A65EE434A6FEE000ABA
:1027700027EE030A26EE031A65EE032A34EEC63A64
:1027800032EE472AF0EE4C4A63EEA55AF4EEE15AD7
:10279000F1EE10FA0EDCD5ED0C1AF0EE4C4AF1EE2B
:1027A000611AF4EEE15AF1EE10FAA4BFF0EE634ABA
:1027B000F0EE651A71EEE21AD5ED072A13EE241A2F
:1027C000D5ED0D3A12EE240A4EEE480AF0EE4C4AD0
:1027D00031EEC63A71EE471A22EE832AB4EEE32AAE
:1027E000F1EE10FA0EDC95ED0E3AF0EE4C4AF1EEF9
:1027F000433AB4EEE32AF1EE10FAA4BFF0EE423A07
:10280000F0EE624A71EE232AD5ED083A95ED101AE2
:1028100001EEA40A05EE0D4A06EE0D5A07EE0D6A0A
:1028200095ED112A95ED123A042072EEC71AD5EDF6
:10283000142A03EEA10AD5ED131A70EEC10A00EEB8
:102840000D7A95ED180A60EEA20A85F83C0085ED38
:10285000014A85ED025AB0EE4C5A85ED036A85EDCA
:10286000047AF4EEC00AF1EE10FA0EDC95ED190AC6
:10287000B0EE4C5AB1EE400AF4EEC00AF1EE10FA96
:10288000A4BFB0EE625AB0EE600A95ED157A70EE14
:10289000424AD5ED1A0A23EE456A62EE453A21EE28
:1028A000850A23EE054A62EE052A36EE615A33EEBA
:1028B000C36AF0EE4C3A67EE244AF4EEE04AF1EED9
:1028C00010FA0EDCD5ED1B0AF0EE4C3AF1EE600A80
:1028D000F4EEE04AF1EE10FAA4BFF0EE473AF0EE63
:1028E000640A70EEE22AD5ED160A16EE234A95ED3B
:1028F0001C7A15EE230A32EEC36A34EE615A20EEDA
:10290000866AB4EEC76AF1EE10FA0CDC95ED1D7A1A
:10291000B1EE477AB4EEC76AF1EE10FAA4BFB0EE9A
:10292000467AB0EE60CA34EE074A95ED176A05EEB6
:102930000C0A02EE0D1A03EE0D2A01EE8D3AD4EDCB
:10294000010A34EE614A85ED101A85ED112A85EDF4
:10295000123A06EE040A40EE0D1A94ED100AC5ED87
:10296000131A23F00DFCD6ED010A96ED100A23F0A0
:1029700007FC002041F69C1A40F6E055FEEE009A56
:10298000F6EE008AF7EE00AAB2EE048A4FF00008D5
:102990004FF000098DF80E00ADF80C0041F2500028
:1029A000C2F2000AC2F20005C2F2000000F15004B7
:1029B00041F22010C2F20000061D4BF61410C0F2C6
:1029C00002000078009000BF5FFA89F003F03EFB40
:1029D00083460078002800F0E58144F6484044F63C
:1029E0005041029444F6AC67C2F20000C2F200010A
:1029F000C2F20007007800284FF6FF7018BF0120D0
:102A00000988A1EB0002134618BF9633884231466D
:102A100098BF1346D5E91202D5E9146C3C7800EB57
:102A2000830044F6B463002C4FF6FF74C2F2000337
:102A30001B8818BF0124A3EB04073D4618BF963539
:102A40009C4245F2181398BF3D4645F21017C2F25A
:102A50000003C2F200071B8802EB85023F78002FBB
:102A60004FF6FF7718BF0127A3EB0704254618BFD1
:102A700096359F4245F27437C2F2000798BF25464B
:102A80003F7806EB850345F27C36C2F20006002F44
:102A90004FF6FF7718BF01273688A6EB07042546B7
:102AA00018BF9635B74211ED010A9BED093A91ED39
:102AB000001A9BED0A4A019191ED012A9BED0B5AF8
:102AC00098BF254690ED00FA009893ED00DA92ED5C
:102AD00000EA0CEB850135EE429A34EE41AA33EE62
:102AE00040BA91ED00CA484521D001F085F8B0EE1A
:102AF000603AB0EE615AB0EE414AB0EE402AB0EE14
:102B00004F0AF0EE4E0AB0EE4D1AF0EE4C1AF0EE0F
:102B1000432AB0EE443AF0EE453A12F0F7FAB0EE3E
:102B200040FAB0EE60EAB0EE41DAB0EE61CA029C63
:102B3000B0EE4F0AF0EE4E0AB0EE4D1AF0EE4C1A1F
:102B4000B0EE4B2AF0EE4A2AB0EE493A12F084FC7D
:102B5000D4E90001B0EE40BAB0EE60AAB0EE419AFE
:102B600013F08EFC002800F02981D4E90023DBE972
:102B7000020140F6E055019EC2F200054B40424082
:102B80001A4300F04B829AED021A9AED010A9AED6F
:102B9000063A9AED074A9AED032A9AED085A9AEDF9
:102BA000046A9AED097AC4E9000103A8012100F83A
:102BB0000910042041F650217BEE400AF0EE414A14
:102BC0007AEE431AF0EE446A62EE293A65EE295A2B
:102BD00061EE292AC2F2000150EEA84A51EEA86A1D
:102BE00064EE290A72EEC21A44EEA82A73EEC67A7F
:102BF00070EEC54A46EEA80A41EEA83A35EEC7AADD
:102C000067EEA81A44EEA85A46EE681A6AEE284AF9
:102C100072EEC22A70EEC50A73EEC66A42EEA83A98
:102C200047EE684A46EEA81A75EEC72A40EEA85A43
:102C3000DBED040A73EEC63A8AF800008AF8140045
:102C400042EEA84A43EEA81A00EE810A00EE821A6C
:102C500000EE862A00EE843A00EE854A00EE875A9E
:102C600000EEA16A8AED010A75EEC72A8AED021A02
:102C70008AED032A8AED046A8AED063A8AED074A4C
:102C80008AED085A42EEA84A00EEA47A8AED097A43
:102C90008AF8280011F808009AED0C1A9AED0B0A30
:102CA0009AED0D2A9AED0E3A002839EE404AB0EE20
:102CB000417A22EE296A21EE295A00EE810A00EEBD
:102CC000821A14EE287A8AED0B0A35EE424A76EE25
:102CD000431A8AED0C1A07EE285A04EE286A21EEF0
:102CE000A84A35EE425A36EE437A00EE832A03EEC6
:102CF000684A05EE286A8AED0D2A07EE284A36EE64
:102D0000435A05EE284A00EE843A8AED0E3A9BEDCE
:102D1000090A00F0B28001EB080090ED071A90ED6F
:102D2000083A90ED014A90ED025AD0ED090A90ED73
:102D3000036AD0ED0A1A90ED047A31EE012A30EEE2
:102D4000022A33EE022A90ED0B3A24EE022A90ED8D
:102D50000C4A00EEC52A01EEC62A90ED0D6A33EE4C
:102D6000035AD0ED061A32EE055A34EE054A90EDBC
:102D7000055A27EE044A90ED0E7A80ED070A80EDA1
:102D8000081A80ED092AC0ED0A0A80ED0B2A80EDB1
:102D90000C3A06EE454A07EE614A80ED0D4A80ED99
:102DA0000E6A7CE0204613F06FFB37E10000000064
:102DB0000BD7233C0AD7A33CCDCC4C3D002041F699
:102DC0005024F0EE480ACAE90200CAF810008AED61
:102DD00001BACAE90700CAF824008AED06AACAE9BE
:102DE0000C00CAF838008AED0B9AC2F20004DBF836
:102DF000240004EB0806C6E90700C6E90900C6E995
:102E00000B00C6E90D00DBF82800C6E91600C6E98C
:102E10001800C6E91A00C6E91C00DBF82C00C6E958
:102E20002500C6E92700C6E92900C6E92B0030467F
:102E30009BED040A8AEE800A02F09EFE14F8080058
:102E4000371D86F83C008ECFD6E9055486F8780009
:102E500006F140008EC006F17C00C6E914548EC015
:102E6000C6E9235440F6E055029CDBE90201019ECD
:102E7000C2F20005C4E90001D0E001EB080080EDDA
:102E8000070A80ED080A80ED090A80ED0A0A80ED44
:102E90000B0A80ED0C0A80ED0D0A80ED0E0A01EBA5
:102EA00008009BED0A0A90F83C10002900F08F8082
:102EB00090ED161A90ED173A90ED104A90ED115AD8
:102EC000D0ED180A90ED126AD0ED191A90ED137A30
:102ED00031EE012A30EE022A33EE022A90ED1A3A40
:102EE00024EE022A90ED1B4A00EEC52A01EEC62A06
:102EF00090ED1C6A33EE035AD0ED151A32EE055AE6
:102F000034EE054A90ED145A27EE044A90ED1D7AEE
:102F100080ED160A80ED171A80ED182AC0ED190A07
:102F200080ED1A2A80ED1B3A06EE454A07EE614A0B
:102F300080ED1C4A80ED1D6A90F878109BED0B0A1D
:102F400000295AD090ED251A90ED263A90ED1F4AAF
:102F500090ED205AD0ED270A90ED216AD0ED281A85
:102F600090ED227A31EE012A30EE022A33EE022A67
:102F700090ED293A24EE022A90ED2A4A00EEC52A65
:102F800001EEC62A90ED2B6A33EE035AD0ED241AD7
:102F900032EE055A34EE054A90ED235A27EE044AE4
:102FA00090ED2C7A80ED250A80ED261A80ED272AF7
:102FB000C0ED280A80ED292A80ED2A3A06EE454A1E
:102FC00007EE614A80ED2B4A80ED2C6A26E080ED09
:102FD000160A80ED170A80ED180A80ED190A80EDB7
:102FE0001A0A80ED1B0A80ED1C0A80ED1D0A90F87C
:102FF00078109BED0B0A0029A4D180ED250A80ED05
:10300000260A80ED270A80ED280A80ED290A80ED46
:103010002A0A80ED2B0A80ED2C0A00BF08F1B408C3
:103020000C3608340AF13C0A09F10109B8F5077FAA
:103030007FF4CAACE888B0F5FA6F36D8009841F64C
:103040009C1140F2A004C2F20001C2F20004C0EBE5
:10305000001001EB800005F13C01D1EC030A94ED76
:10306000040A90ED012AD0ED062A90ED0B3A12F0F9
:10307000F3F923F085F81FEDB32A05F13C00B0EE1B
:10308000403A94ED040AD0EC030AF0EE422A12F022
:1030900063FA05F13C0084ED040AC0EC030A04B0B5
:1030A000BDEC108B01B0BDE8F08F0020002402F0D1
:1030B000CDFF0078002878D041F65020C2F2000001
:1030C00090ED0DAA90ED1C9A90ED2B8A687800285F
:1030D0006DD040F6606441F220165FEDCB2A4FF6CA
:1030E000FF77C2F20004C2F2000696ED011A94EDD9
:1030F0000F4A96ED000A94ED0E3A96ED022A94EDF1
:10310000105A74EE410A79EE411A33EE407A3AEEE3
:10311000406A35EE425A38EE424A31EEE01A36EE57
:10312000470A34EE452A21EE013A00EE003A02EE5B
:10313000023AB4EEE23AF1EE10FA4ADD60EEA00A8D
:1031400061EEA11A47EE070A46EE061A45EE050A99
:1031500044EE041A31EEE04A5FEDEA1A24EE284A02
:1031600084EE033A61EE030A20EE030A22EE031A0C
:103170001EF06EFB1FEDF02A96ED003A96ED014A27
:1031800096ED025A84ED0EAA84ED0F9A84ED108A12
:1031900000EE023A00EE824A01EE025A86ED003A53
:1031A00086ED014A86ED025A13E06C700BE040F6A2
:1031B0006060C2F2000080ED0EAA80ED0F9A80EDF3
:1031C000108A0120687041F220164FF6FF77C2F294
:1031D0000006012002F03AFF0078002872D041F684
:1031E0005020C2F2000090ED3AAA90ED499A90ED7D
:1031F000588AA878012867D140F6606496ED041AD1
:1032000096ED030A96ED052ADFEDEA2AC2F20004E4
:1032100094ED124A94ED113A94ED135A79EE411A55
:103220003AEE406A74EE410A33EE407A35EE425A85
:1032300038EE424A31EEE01A36EE470A34EE452ABD
:1032400021EE013A00EE003A02EE023AB4EEE23A22
:10325000F1EE10FA44DD60EEA00A61EEA11A47EE2D
:10326000070A46EE061A45EE050A44EE041A31EE48
:10327000E04ADFEDD11A24EE284A84EE033A61EEEB
:10328000030A20EE030A22EE031A1EF0E1FA9FED74
:10329000CB2A96ED033A96ED044A96ED055A84ED55
:1032A00011AA84ED129A84ED138A00EE023A00EE20
:1032B000824A01EE025A86ED033A86ED044A86ED13
:1032C000055A0DE000200AE040F66060C2F20000FE
:1032D00080ED11AA80ED129A80ED138A0120A8706A
:1032E000022002F0B3FE0078002872D041F6502090
:1032F000C2F2000090ED67AA90ED769A90ED858A73
:10330000E878012867D140F6606496ED071A96EDDB
:10331000060A96ED082ADFEDA72AC2F2000494ED12
:10332000154A94ED143A94ED165A79EE411A3AEE94
:10333000406A74EE410A33EE407A35EE425A38EE76
:10334000424A31EEE01A36EE470A34EE452A21EEC3
:10335000013A00EE003A02EE023AB4EEE23AF1EE41
:1033600010FA44DD60EEA00A61EEA11A47EE070AEA
:1033700046EE061A45EE050A44EE041A31EEE04A1E
:10338000DFED8D1A24EE284A84EE033A61EE030A3B
:1033900020EE030A22EE031A1EF05AFA9FED872A46
:1033A00096ED063A96ED074A96ED085A84ED14AA72
:1033B00084ED159A84ED168A00EE023A00EE824AF8
:1033C00001EE025A86ED063A86ED074A86ED085A66
:1033D0000DE000200AE040F66060C2F2000080EDDF
:1033E00014AA80ED159A80ED168A0120E87000205D
:1033F000002502F02BFE04460078E0B19DF80C0099
:1034000041F69C15C2F20005002800F0EF8095ED12
:10341000061A95ED010A95ED0B2A21EE018A00EEC0
:10342000008A02EE028AB5EEC08AF1EE10FA7DDA69
:103430009FED630A87E040F66060C2F2000005621B
:10344000C56241F69C15C2F20005CFE040F6E0539C
:103450009FED5C0A9FED5C2AC2F2000393ED051A12
:10346000B8EEC11A21EE003AB4EEC23AF1EE10FA0B
:1034700008DCB4EEC03AB0EE432AF1EE10FAB8BF61
:10348000B0EE402A90ED063AB7EE084AB6EE005A82
:1034900093ED040A23EE046A9FED4C4AB7EE003A1E
:1034A00002EE056A83EE023A36EE405AB4EEC45A92
:1034B000F1EE10FA08DC9FED464AB4EEC45AF1EE84
:1034C00010FAA8BFB0EE454A9FED425A40F6606739
:1034D000C2F2000722EE052A02EE040A91ED112A3B
:1034E00091ED124A83ED040A90ED135A90ED146A9F
:1034F00035EE422A36EE444A23EE022A23EE043AFF
:1035000022EE012A23EE011A87ED062A87ED071A1B
:10351000D0E91376456D00205861C1E91176CD647C
:10352000D2E90023C1E90023FEF732BEB0EE480A1B
:1035300024F04FFBB4EEC00AF1EE10FA03D7B0EE60
:10354000480A24F046FB40F660609FED232AC2F251
:10355000000090ED081A30EE020AB4EEC10AF1EE56
:1035600010FA10DD80ED080A9FED1C2A90ED0B1A71
:1035700094ED043A30EE410A23EE022A02EE001ADC
:1035800080ED0B1A32E09FED152A94ED043A30EEEF
:10359000414A23EE022A90ED0B3A04EE021AB4EEF1
:1035A000C30A80ED081AF1EE10FA19DA80ED0B0A61
:1035B0001CE000BF0BD7233C0AD7A33CCDCC4C3D2D
:1035C000000000006F12833A6666663FCDCC4C3E29
:1035D000CDCC4CBECDCCCC3D9A9919BF9A99193F10
:1035E00030EE430A00EE023A80ED0B3A012002F081
:1035F0002DFD04460078B8B19DF80D00002864D078
:1036000095ED151A95ED100A95ED1A2A21EE018A0D
:1036100000EE008A02EE028AB5EEC08AF1EE10FAE0
:103620000ADA1FED190A14E040F660600021C2F2C8
:1036300000004162016348E0B0EE480A24F0C9FA94
:10364000B4EEC00AF1EE10FA03D7B0EE480A24F047
:10365000C0FA40F660601FED202AC2F2000090ED33
:10366000091A30EE020AB4EEC10AF1EE10FA10DDCA
:1036700080ED090A1FED272A90ED0C1A94ED043A0B
:1036800030EE410A23EE022A02EE001A80ED0C1AF7
:103690001BE01FED2E2A94ED043A30EE414A23EE52
:1036A000022A90ED0C3A04EE021AB4EEC30A80ED41
:1036B000091AF1EE10FA02DA80ED0C0A05E030EE9C
:1036C000430A00EE023A80ED0C3A022002F0BEFC02
:1036D00004460078B8B19DF80E00002864D095ED3E
:1036E000241A95ED1F0A95ED292A21EE018A00EE94
:1036F000008A02EE028AB5EEC08AF1EE10FA0ADA0A
:103700001FED4B0A18E040F660600021C2F2000095
:103710008162416348E0B0EE480A24F05AFAB4EE00
:10372000C00AF1EE10FA03D7B0EE480A24F051FABD
:103730001FED571A30EE010A40F66060C2F2000039
:1037400090ED0A1AB4EEC10AF1EE10FA10DD80ED28
:103750000A0A9FEDE62A90ED0D1A94ED043A30EE38
:10376000410A23EE022A02EE001A80ED0D1A1BE038
:103770009FEDDE2A94ED043A30EE414A23EE022A10
:1037800090ED0D3A04EE021AB4EEC30A80ED0A1A67
:10379000F1EE10FA02DA80ED0D0A05E030EE430A90
:1037A00000EE023A80ED0D3A002002F04FFC007866
:1037B00018B39DF80C0000B340F660609FEDCC1A82
:1037C000C2F2000090ED0B0AB4EEC10AF1EE10FA5D
:1037D00013DD90ED081A9FEDC72AB4EEC21AF1EE80
:1037E00010FA0ADA31EE400A9FEDC31AB4EEC10AAC
:1037F000F1EE10FA01DA002056E0012002F026FC7A
:10380000007818B39DF80D0000B340F660609FED9E
:10381000B81AC2F2000090ED0C0AB4EEC10AF1EE43
:1038200010FA13DD90ED091A9FEDB22AB4EEC21A18
:10383000F1EE10FA0ADA31EE400A9FEDAF1AB4EE5B
:10384000C10AF1EE10FA01DA01202DE0022002F0A7
:10385000FDFB00789FEDA90A60B39DF80E0048B308
:1038600040F660629FEDA22AFF204FF0FF38002152
:10387000C2F2000292ED0D1AB4EEC21AF1EE10FA85
:103880001CDD92ED0A2A9FED9B3AB4EEC32AF1EEBD
:1038900010FA13DA32EE411A9FED972AB4EEC21AEB
:1038A000F1EE10FA0ADA02209FED8D0A5FFA80F835
:1038B000012103E0FF204FF0FF38002140F2A00B70
:1038C000C2F2000B9BED011A31EE001AB3EE0E0AA4
:1038D000B4EEC01A8BED011AF1EE10FA06DCB5EE6B
:1038E000C01AF1EE10FA03DA9FED7F0A8BED010AA0
:1038F000002900F0EF8003A911F80810002900F05A
:10390000E98002F0A3FB45F2743144F648424FF6D9
:10391000FF739FED74DAC2F20001C2F2000291F867
:1039200000E04FF6FF71BEF1000F18BF01211478BF
:1039300044F6AC62C2F20002167845F21012C2F2EE
:10394000000292F800904FF6FF72B9F1000F18BF15
:103950000123002E18BF0122002C18BF012790ED73
:10396000040A009820EE0DCA804577D045F27C30DD
:1039700040F6E05C002CC2F20000C2F2000C0088AD
:10398000029045F21810C2F200000088019044F63F
:10399000B460C2F20000B0F800A044F65040C2F299
:1039A00000000088A0EB07052C4618BF963487421C
:1039B0000CF1480798BF2C46A1CF002EDCF854C06C
:1039C00000EB8400AAEB02040097264618BF963647
:1039D000524598BF2646019FB9F1000F05EB8602BC
:1039E000A7EB0304254618BF9635BB4298BF254672
:1039F000009B029FBEF1000F03EB8503A7EB0105BF
:103A00002C4618BF9634B94298BF2C4641F69C15F7
:103A100093ED009A92ED00AA90ED00BA0CEB8401B0
:103A2000C2F2000591ED008A00F0E6F8B0EE603ACF
:103A3000B0EE615AB0EE414AB0EE402AB0EE4B0A09
:103A4000F0EE4A0AB0EE491AF0EE481AF0EE432AB8
:103A5000B0EE443AF0EE453A11F058FB40F6E0542F
:103A6000C8EB0810C2F2000405EB800004F13C0131
:103A7000D1EC030A9BED040A90ED012AD0ED062A51
:103A800090ED0B3A11F0E8FC22F07AFB2CEE0D3AA7
:103A90002CEE000AB4EEC30AF1EE10FA08DCB1EE27
:103AA000433AB4EEC30AF1EE10FAA8BFB0EE403AC2
:103AB0009FED0D2A04F13C00D0EC030A9BED040AB3
:103AC000F0EE422A11F048FD04F13C008BED040AAF
:103AD000C0EC030A04B0BDEC108B01B0BDE8F08F60
:103AE0006F12833ACDCC4C3E000000009A99193FEA
:103AF0009A9999BE9A99993E0AD7233C6F1203BAB4
:103B0000022806D9DFED090AB0EE601AB0EE600AAD
:103B1000704743F2F45100EB8000C2F2000101EB68
:103B2000C000283090EC030A704700BF000000007E
:103B3000022806D9DFED090AB0EE601AB0EE600A7D
:103B4000704743F2F45100EB8000C2F2000101EB38
:103B5000C000343090EC030A704700BF0000000042
:103B600043F2F450C2F2000090EDCE0A704700001C
:103B700043F2F450C2F2000090EDCF0A704700000B
:103B800043F2F45100EB8000C2F2000101EB00109F
:103B900000F5CC707047000043F2F45100EB800058
:103BA000C2F2000101EB001000F5C8707047000080
:103BB00043F2F45100EB8000C2F2000101EB00106F
:103BC00000F5DC7070470000022806D9DFED090A15
:103BD000B0EE601AB0EE600A704743F2F45100EBA9
:103BE0008000C2F2000101EBC000A03090EC030A9B
:103BF000704700BF0000000043F2F450C2F2000022
:103C000000F5347090EC040A70470000022806D9D1
:103C1000DFED090AB0EE601AB0EE600A704743F2B9
:103C2000F45100EB8000C2F2000101EBC00000F58E
:103C30008C7090EC030A704700000000022806D93F
:103C4000DFED090AB0EE601AB0EE600A704743F289
:103C5000F45100EB8000C2F2000101EBC00000F55E
:103C6000927090EC030A70470000000043F2F45099
:103C7000C2F2000090F82E039FED041A00EE100A25
:103C8000B8EE400A20EE010A704700BF0AD7233C75
:103C900043F2F450C2F2000090F82D039FED041A95
:103CA00000EE100AB8EE400A20EE010A704700BF8D
:103CB0000AD7233C43F2F450C2F2000090F82C03E0
:103CC0007047000043F2F450C2F2000090EDCC0ABD
:103CD000704700009FED0A0A02280FD84A1E032AE7
:103CE00088BF704700EB800001EB400043F2F451C5
:103CF000C2F2000101EB800090EDD20A704700BFD4
:103D0000000000009FED0A0A02280FD84A1E032A6D
:103D100088BF704700EB800001EB400043F2F45194
:103D2000C2F2000101EB800090EDD60A704700BF9F
:103D300000000000022884BF9FED060A704743F28E
:103D4000F45100EB8000C2F2000101EBC00090EDE5
:103D5000D20A70470000000043F2F450C2F20000A3
:103D600090F8200370470000022884BF00207047AD
:103D700043F2F451C2F2000101EB8000D0F8F407E5
:103D800070470000022888BF704743F2F45100EBEF
:103D90008000C2F2000101EBC000283080EC030A71
:103DA00070470000022888BF704743F2F45100EBCF
:103DB0008000C2F2000101EBC000343080EC030A45
:103DC0007047000043F2F450C2F2000080EDCE0ACA
:103DD0007047000043F2F450C2F2000080EDCF0AB9
:103DE00070470000B0B543F2F45200EB8000C2F21D
:103DF00000024C6901F1080502EB0010D1E900CE88
:103E00002CCDC0F8AC4100F5D0742CC4C0E966CE0E
:103E1000D1E90612C0E96C12B0BD000043F2F452C1
:103E200000EB8000C2F2000202EB00100A68496851
:103E3000C0E9642170470000B0B543F2F45200EBD2
:103E40008000C2F200024C6901F1080502EB00108B
:103E5000D1E900CE2CCDC0F8CC4100F5E0742CC4E3
:103E6000C0E96ECED1E90612C0E97412B0BD0000FF
:103E7000022888BF704743F2F45100EB8000C2F281
:103E8000000101EBC000A03080EC030A7047000085
:103E9000022888BF704743F2F45100EB8000C2F261
:103EA000000101EBC000AC3080EC030A7047000059
:103EB00043F2F450C2F2000000F5347080EC040AC2
:103EC00070470000022888BF704743F2F45100EBAE
:103ED0008000C2F2000101EBC00000F58C7080ECA4
:103EE000030A7047022888BF704743F2F45100EB81
:103EF0008000C2F2000101EBC00000F5927080EC7E
:103F0000030A70479FED071A43F2F45120EE010AAD
:103F1000BDEEC00A10EE100AC2F2000181F82E03B5
:103F2000704700BF0000C8429FED071A43F2F451EA
:103F300020EE010ABDEEC00A10EE100AC2F2000126
:103F400081F82D03704700BF0000C84243F2F451CE
:103F5000C2F2000181F82C037047000043F2F450D4
:103F6000C2F2000080EDCC0A7047000002280FD892
:103F70004A1E032A88BF704700EB800001EB400017
:103F800043F2F451C2F2000101EB800080EDD20A4D
:103F90007047000002280FD84A1E032A88BF7047C6
:103FA00000EB800001EB400043F2F451C2F200014B
:103FB00001EB800080EDD60A70470000022888BF20
:103FC000704743F2F45100EB8000C2F2000101EBB4
:103FD000C00080EDD20A704743F2F451C2F20001F2
:103FE00081F8200370470000022884BF002070473A
:103FF00080B500EB8000282101EBC00143F2F450B2
:10400000C2F2000008440C2280EC030A1EF086F97C
:10401000B0FA80F0400980BD022884BF00207047BC
:1040200080B500EB8000342101EBC00143F2F45075
:10403000C2F2000008440C2280EC030A1EF06EF964
:10404000B0FA80F0400980BDF0B581B000EB80008F
:104050004FF4CC7243F2F45C02EB0012C2F2000C9B
:104060004B690CEB020091E8F0404361031D4CF8F2
:10407000024083E8E040D1E90613C0E90613114687
:1040800020221EF04BF9B0FA80F0400901B0F0BDDB
:1040900080B500EB80004FF4C87243F2F45C02EB91
:1040A0000012C2F2000C0B6849680CEB02004CF8DD
:1040B00002304160114608221EF030F9B0FA80F05B
:1040C000400980BDF0B581B000EB80004FF4DC7298
:1040D00043F2F45C02EB0012C2F2000C4B690CEBF1
:1040E000020091E8F0404361031D4CF8024083E870
:1040F000E040D1E90613C0E90613114620221EF064
:104100000DF9B0FA80F0400901B0F0BD022884BF7B
:104110000020704780B500EB8000A02101EBC001BA
:1041200043F2F450C2F2000008440C2280EC030A6F
:104130001EF0F4F8B0FA80F0400980BD80B543F27B
:10414000F451C2F2000101F5347001F5347181ECD3
:10415000040A4FF4347110221EF0E0F8B0FA80F037
:10416000400980BD022884BF0020704780B500EB65
:1041700080004FF48C7101EBC00143F2F450C2F2A5
:10418000000008440C2280EC030A1EF0C7F8B0FAC5
:1041900080F0400980BD0000022884BF00207047E5
:1041A00080B500EB80004FF4927101EBC00143F247
:1041B000F450C2F2000008440C2280EC030A1EF006
:1041C000ADF8B0FA80F0400980BD000080B5D0E9BC
:1041D0000012806843F2F453C2F20003C3F8F417EC
:1041E000C3F8F827C3F8FC0703F2F47040F2F47147
:1041F0000C221EF093F8B0FA80F0400980BD000058
:104200002DE9F043CBB0D1F80C9080465FFA89F4E9
:1042100020460D460AF0E2FC064630B10AF0D8FC12
:1042200058B10DF029FD044608E020460DF02AFDA6
:1042300006460AF0CDFC0028F3D10024404616F0D3
:1042400017FD07460068F0B1B5F807000A21ADF880
:104250001C0000208DF816408DF813004D2002AC94
:10426000ADF814100696ADF811008F262046414691
:104270000A220A238DF8179000961AF027FB386857
:1042800021461BF099FA4BB0BDE8F08380B584B0AD
:10429000C8680A694969CDE9010201A80391FFF7DD
:1042A00095FF04B080BD000010B50C4616F0B6FDB9
:1042B000012818D12069B2EE041A00EE100AB4EEFB
:1042C000410AF1EE10FA1CDBB3EE031AB4EE410A18
:1042D000F1EE10FA15DCBDEEC00A10EE100ABDE8D2
:1042E000104012F0C1BC0A38092888BF10BD2069EF
:1042F000B7EE000A01EE100AB4EE401AF1EE10FA21
:10430000E9D010BD70B5CAB00E46054616F0B0FC37
:10431000044601F0B5FE18B3BBEE0E0A10F04EFED7
:104320002068E8B3B6F80700152104910021ADF824
:1043300018004D2001AE05918DF80F10ADF80D005D
:104340004FF08F0C304629460A220A23CDF800C0D0
:104350001AF0BCFA206831461BF02EFA4AB070BD44
:104360002068E8B1B6F807001521C0F202010491F7
:104370000021ADF818004D2001AE05918DF80F1009
:10438000ADF80D004FF08F0C304629460A220A2363
:10439000CDF800C01AF09AFA206831461BF00CFAEA
:1043A0004AB070BDF0B5CBB04F6A0E46054616F068
:1043B0005FFC044601F064FE28B39FED230A01EE82
:1043C000107A21EE000A10F0DFFB2068C8B3B6F8BF
:1043D0000700162105910021ADF81C004D2002AE0A
:1043E00006918DF81310ADF811008F27304629463D
:1043F0000A220A2300971AF069FA206831461BF056
:10440000DBF94BB0F0BD2068D8B1B6F80700162133
:10441000C0F2020105910021ADF81C004D2002AE52
:1044200006918DF81310ADF811008F2730462946FC
:104430000A220A2300971AF049FA206831461BF035
:10444000BBF94BB0F0BD00BF0000C8427047000090
:1044500070B5CAB0054616F00BFC04460068E0B122
:10446000C820C0F264000490C820ADF814000020F9
:104470008DF80F004FF4967001AEADF80D004FF0BF
:10448000D90C3046294616221623CDF800C01AF062
:104490001DFA206831461BF08FF94AB070BD00004C
:1044A000F0B5CBB0044616F0E3FB05464FF40350DD
:1044B00002AE0027059006F130002A210697CDE9CB
:1044C0000777CDE90977CDE90B770D97FCF7D0FA9F
:1044D00094208DF81370ADF81100B22730462146B4
:1044E0003C224E2300971AF0F1F9286831461BF060
:1044F00063F94BB0F0BD00002DE9F04FADF51B7D29
:1045000089A80130039024A809301D904CF2B8709E
:10451000C0F20200008840F6B845C2F200050DF175
:10452000860C00261C900CE01F9840F6B845169E9D
:10453000C007C2F2000540F0F9830136042E00F0F6
:10454000F58306EB460405EB84008268002AF4D06C
:1045500060460A219047C0B20028159000F0E2831F
:1045600045F66020C2F200004FF4927106FB01098B
:1045700045F6F060C2F2000000EBC40A09F2151023
:10458000189009F58A70149009F104001A900AF144
:104590000D0013900AF11000119009F109001B9011
:1045A0000AF11400079009F10200109009F58B70D0
:1045B000099009F21D10069009F21710059009F1F3
:1045C00007000C9009F108000E900AF10400179002
:1045D00009F10C000D900AF10C00199009F1060088
:1045E000129009F105000F900AF1020020900AF1E3
:1045F00005000B900AF108000A900AF10A00159CC8
:1046000016960AF1030B09F1030308900026002017
:104610004FF0000E0DF1860C1F901E9307E000BFB7
:1046200001201F900136F0B284427FF67DAFF1B2D7
:104630009BF800001CF801800F284FF000018AF859
:10464000001000F2A9810227DFE810F0100010002E
:104650002700430055006A007F009400A900C500B0
:10466000DC00F700180175017B019C01B8F1FE0F19
:104670004FF0000700F0A281B8F1FD0F40F0FC827E
:10468000199D02208BF800002878109A0027FD2140
:104690001F70117000F0FE009BE1B9F8000017993F
:1046A00083F8008081F800E088EA000181EA0111C6
:1046B000C9B20A0242EA10200A0982EAC101199A23
:1046C00048401278A9F80000D10740F08881032003
:1046D000A6E11A98B8F1020F80F80080C0F0888136
:1046E0002099002708788AF80070013008700120AE
:1046F0008BF80000C0E2B9F800000F9981F8008043
:1047000088EA000181EA0111C9B20A0242EA1020D6
:104710000A0982EAC1014840A9F8000005207FE1AA
:10472000B9F80000129981F8008088EA000181EA56
:104730000111C9B20A0242EA10200A0982EAC10143
:104740004840A9F8000006206AE1B9F800000C9979
:1047500081F8008088EA000181EA0111C9B20A02E9
:1047600042EA10200A0982EAC1014840A9F8000083
:10477000072055E1B9F800000E9981F8008088EA19
:10478000000181EA0111C9B20A0242EA10200A09B5
:1047900082EAC1014840A9F80000082040E11B99C5
:1047A000B9F8000081F802E0A1F8008088EA000171
:1047B00081EA0111C9B20A0242EA10200A0982EA1A
:1047C000C101199A48401278A9F80000D10740F0B9
:1047D0002181092024E11B9AB9F80010108840EAD1
:1047E0000820108088EA010080EA0010C0B20202AE
:1047F00042EA1121020982EAC0004840A9F80000FB
:104800000A200DE11B9AB9F80010907840EA0800E0
:10481000907088EA010080EA0010C0B2020242EA09
:104820001121020982EAC0001A784840002AA9F83A
:10483000000000F0F3800B20F2E0179D2878411C67
:10484000CAB22970B9F800100D9D05F8008088EAF9
:10485000010080EA0010C0B21D46030243EA1121A4
:10486000030983EAC0002B7848409A42A9F8000067
:104870005FD10C208BF800000027FCE11B99A822D7
:104880008878098841EA0040002100BF914213D294
:104890008B1801335F084DF2BC0507EB4704C0F2EB
:1048A000020555F82440844298BF39464FF0FF3442
:1048B00088BF04EB5302E9D14DF2BC0401EB410285
:1048C000C0F2020454F82230002183424FF000006D
:1048D00003BF04EB8200027901210022B9F8003005
:1048E000159C5A4082EA0212D2B2170247EA1323F9
:1048F000170987EAC2025A40A9F80020D2B29045AF
:104900004FF00E0208BF0D22002914998BF80020E9
:1049100081F800800DD01799427909788A4208D928
:104920000D980844511AFCF781F80DF1860C4FF0F0
:10493000000E00279FE199F801000227404508BFBB
:1049400001271A988AF800700078C007189880F834
:10495000008023D111980068002800F07081026B5C
:104960005AB11B998878098841EA0041504690471E
:104970009AF80070002840F06281022F40F0ED802C
:1049800002275CE1139A1078A9EB0001013881F845
:104990002381010610704BD000276DE10F20139981
:1049A0008BF80000022F4FF00D0008703CD11878F2
:1049B0008DF89300209880F800E0A9E1199D02206D
:1049C0008BF800002878109AFE2140F001001F703B
:1049D000117028704FF6FF70A9F800004CE11A988A
:1049E000002707700F98077005208BF8000043E13F
:1049F000B9F8000088EA000181EA0111C9B20A028F
:104A000042EA10200A0982EAC1014840A9F80000E0
:104A1000042005E0187800287FF40DAF0C2000BFBB
:104A20008BF80000002727E100278AF8007023E1B7
:104A300011980168002900F0FF800798CDE96FEE1A
:104A400000686FAD04904EF26760C6F60920719061
:104A50004AF68560CBF6673072904FF27230C3F63B
:104A60006E4073904FF23A50CAF24F50749045F234
:104A70007F20C5F20E10759046F68C00C9F6053001
:104A800076904DF6AB10C1F6837077904CF61950C6
:104A9000C5F6E030789002911031284620221BF0B4
:104AA000CDF91E981099007800F10A0228461BF0F3
:104AB000C5F91499284602221BF0C0F90999284625
:104AC00007221BF0BBF96F9C3720A0EBD40000F04D
:104AD0003F0589A82F1880208DF8240203984721CC
:104AE000FBF7A4FF709920BAC7F8050008BAC7F809
:104AF000010005F109026FA8049D89A91BF09EF928
:104B00009DF8C5119DF8C4018DF8B8119DF8CA1122
:104B10009DF8C7218DF8B9019DF8CB019DF8C631EC
:104B20008DF8BB1106998DF8B6218DF8BA010DF5F7
:104B3000DB7006228DF8B731FBF7B6FE78B111981D
:104B40000068026BDAB31B998878098841EA004152
:104B500050469047159C00286ED103276DE0002D2C
:104B6000EDD00998037805988188D0F800E001918C
:104B7000298859B30C98002290F800C0A81C04E0C2
:104B80000132914200F109001CD04478A445F7D1CC
:104B90000E9C87782478BC42F2D10478A342EFD1EE
:104BA00097B2B9420FD0B0F80710D0F80300019BBC
:104BB000B0EB0E009BB271EB0300C0D225E0159C58
:104BC00003273AE00A460F29B9D800E000220198ED
:104BD0001FFA80FC48F68050C0F25B001EEB000715
:104BE00002984CF1000CD0E902403C1B7CEB000029
:104BF000A5D30C9802EBC20700782F44F8700E98EA
:104C00000078BB703871481C288002EBC200059AFE
:104C100028449188029BA0F809101168C0F805107B
:104C2000D3E902120198B1EB0E0180B272EB0001E0
:104C300038BFC3E902E0159C01278AF80070012003
:104C40008BF8000024A849464FF49272FBF777FED8
:104C5000012F50D10A9B1299188809780B9A4FF0AE
:104C6000000E117010B90899A1F800E00130012779
:104C70000DF1860C18801E9B18788DF893002098F3
:104C800080F800E007F0FE00022815D120990120ED
:104C9000B8F1FD0F08708AF800E08BF800007FF48F
:104CA000C1AC02208BF800004FF6FF7083F800E0E3
:104CB000A9F80000B6E400BF002F3FF4B3AC1D9983
:104CC0008878098841EA00401C998842BFF4A8AC62
:104CD0004CF23031C0F2020151F82020002A3FF49A
:104CE0009FAC169824A9C0B290471E9B0DF1860C6C
:104CF0004FF0000E94E41E9B022F18784FF0000E28
:104D00008DF8930020980DF1860C80F800E0B9D161
:104D1000149818990078097840EA0120ADF89000BD
:104D2000B4E700BF0DF1860CFFF707BC0DF51B7D46
:104D3000BDE8F08F10B540F6B844C2F20004E06858
:104D400020B1804700281CBF012010BDA06920B100
:104D5000804700281CBF012010BD606A08B1804751
:104D600018B9206B18B1804708B1012010BD002090
:104D700010BD00002DE9F04FCBB040F6B846C2F2AE
:104D80000006308840F28C08013081B26329C2F2FB
:104D90000008308040F29480716802AA002002F17D
:104DA0000905308001B3B8F802104FF6FF720029F0
:104DB00018BF41F00101059202228DF81A1040F24D
:104DC000033102ACADF81820ADF81B10A870288094
:104DD00032272046002109220923009719F08AF979
:104DE000706821461AF068FC306908B3B8F8020010
:104DF0004FF6FF71002818BF40F001008DF81A002F
:104E000040F2033005910221ADF81B00002002ACF6
:104E1000ADF81810A87028803227204601210922F9
:104E20000923009719F066F9306921461AF044FC0D
:104E3000F06908B3B8F802004FF6FF71002818BFF8
:104E400040F001008DF81A0040F203300591022174
:104E5000ADF81B00002002ACADF81810A870288037
:104E600032272046022109220923009719F042F92E
:104E7000F06921461AF020FCB06A08B3B8F80200C5
:104E80004FF6FF71002818BF40F001008DF81A009E
:104E900040F2033005910221ADF81B00002002AC66
:104EA000ADF81810A8702880322720460321092267
:104EB0000923009719F01EF9B06A21461AF0FCFB8D
:104EC00006F1040B43F298064CF2BC7A0027C2F2BA
:104ED0000006C0F2020A02AC00254FF0000807E00D
:104EE000283508F10108A02D0BF10C0B00F02581ED
:104EF000DBF800000028F3D0705BD8B17119CA78D4
:104F00008B78013227463446D6B29E4226463C462E
:104F10004FF00007CA700DD35AF82020CF705FFA07
:104F200088F02146904728B1DBF8000021461AF0AE
:104F3000C3FB00BF06EB0509B9F80400C0B199F83E
:104F4000071099F806200131CBB2934289F8071077
:104F50000ED35AF820205FFA88F0214689F80770AE
:104F6000904728B1DBF8000021461AF0A5FB00BFEE
:104F7000B9F80800C0B199F80B1099F80A2001316E
:104F8000CBB2934289F80B100ED35AF820205FFA67
:104F900088F0214689F80B70904728B1DBF80000B3
:104FA00021461AF089FB00BFB9F80C00C0B199F88E
:104FB0000F1099F80E200131CBB2934289F80F10EF
:104FC0000ED35AF820205FFA88F0214689F80F7036
:104FD000904728B1DBF8000021461AF06DFB00BFB6
:104FE000B9F81000C0B199F8131099F812200131E6
:104FF000CBB2934289F813100ED35AF820205FFAEF
:1050000088F0214689F81370904728B1DBF800003A
:1050100021461AF051FB00BFB9F81400C0B199F84D
:10502000171099F816200131CBB2934289F8171066
:105030000ED35AF820205FFA88F0214689F81770BD
:10504000904728B1DBF8000021461AF035FB00BF7D
:10505000B9F81800C0B199F81B1099F81A2001315D
:10506000CBB2934289F81B100ED35AF820205FFA76
:1050700088F0214689F81B70904728B1DBF80000C2
:1050800021461AF019FB00BFB9F81C00C0B199F80D
:105090001F1099F81E200131CBB2934289F81F10DE
:1050A0000ED35AF820205FFA88F0214689F81F7045
:1050B000904728B1DBF8000021461AF0FDFA00BF46
:1050C000B9F82000C0B199F8231099F822200131D5
:1050D000CBB2934289F823100ED35AF820205FFAFE
:1050E00088F0214689F82370904728B1DBF800004A
:1050F00021461AF0E1FA00BFB9F8240000283FF475
:10510000EFAE99F8271099F826200131CBB29342DF
:1051100089F82710FFF4E4AE5AF820205FFA88F0EF
:10512000214689F82770904700283FF4D9AEDBF874
:10513000000021461AF0C0FAD2E640F28C0AC2F210
:10514000000ABAF90000002800F1F2804DF20001D7
:1051500040F6B84BC0F20201C2F2000BB1F8009069
:10516000DBF804104CF6484804F1140604F1090574
:10517000C0F2020891B380B2C0EBC00008EB80041B
:10518000A0698047BAF90000D4F80520C0EBC0013F
:10519000ADF81A00D4F80100D4F80930D4F80D4065
:1051A00018F8211030600020F460A870162002ACBE
:1051B0007260B3608DF82C102880DC272046002117
:1051C000192219238DED050AADF81890009718F0F3
:1051D00091FFDBF8040021461AF06EFADBF81000AC
:1051E00098B3BAF90000C0EBC00008EB8004A069D6
:1051F0008047BAF90000D4F80520C0EBC001ADF833
:105200001A00D4F8010018F82110D4F80930D4F8A5
:105210000D7030600020A870162002AC7260B36080
:10522000F7608DF82C102880DC27204601211922F8
:1052300019238DED050AADF81890009718F05AFF64
:10524000DBF8100021461AF037FADBF81C0098B39F
:10525000BAF90000C0EBC00008EB8004A0698047E9
:10526000BAF90000D4F80520C0EBC001ADF81A006F
:10527000D4F8010018F82110D4F80930D4F80D70D2
:1052800030600020A870162002AC7260B360F76036
:105290008DF82C102880DC272046022119221923A2
:1052A0008DED050AADF81890009718F023FFDBF894
:1052B0001C0021461AF000FADBF8280098B3BAF96E
:1052C0000000C0EBC00008EB8004A0698047BAF979
:1052D0000000D4F80520C0EBC001ADF81A00D4F8E6
:1052E000010018F82110D4F80930D4F80D7030609E
:1052F0000020A870162002AC7260B360F7608DF8D1
:105300002C102880DC2720460321192219238DED3B
:10531000050AADF81890009718F0ECFEDBF82800AD
:1053200021461AF0C9F9BAF800000138AAF80000BD
:105330004BB0BDE8F08F000080B54FF48061FBF703
:1053400075FB80BD2DE9F04F81B0062A00F2A480E4
:105350004FF0000C11F80C70002F00F0998001EB59
:105360000C077E7886B3BE78AEB3FE78D6B33E79AE
:10537000002E3ED07E79002E42D0BE79002E46D03F
:10538000FE79002E4AD03E7A002E4ED07E7A002E34
:1053900052D0BE7A002E56D0FE7A002E5AD03E7BD6
:1053A000002E5ED07E7B002E62D0BE7B002E66D0AB
:1053B000FE7B002E6AD03F7C002F71D00CF1110CC7
:1053C000BCF1FF0FC6D167E00CF1010C03EBCC0779
:1053D000802F61D86AE00CF1020C03EBCC07802F20
:1053E0005AD863E00CF1030C03EBCC07802F53D8A1
:1053F0005CE00CF1040C03EBCC07802F4CD855E09B
:105400000CF1050C03EBCC07802F45D84EE00CF1D6
:10541000060C03EBCC07802F3ED847E00CF1070CBD
:1054200003EBCC07802F37D840E00CF1080C03EBDE
:10543000CC07802F30D839E00CF1090C03EBCC07F6
:10544000802F29D832E00CF10A0C03EBCC07802F17
:1054500022D82BE00CF10B0C03EBCC07802F1BD8D0
:1054600024E00CF10C0C03EBCC07802F14D81DE0CA
:105470000CF10D0C03EBCC07802F0DD816E00CF1CE
:105480000E0C03EBCC07802F06D80FE00CF10F0CAD
:1054900003EBCC07802F09D9002001B0BDE8F08FC5
:1054A0000CF1100C03EBCC07802FF5D85FEA0C67EA
:1054B0000FD0ACF101074AF6017E0CF0030A032F6E
:1054C000C0F2020E09D24FF00008BAF1000F40F00E
:1054D0007F80012001B0BDE8F08F00EBC2141C44B6
:1054E000AAEB0C0CA4F1200501F101096FF00306F1
:1054F000CDF800A009EB060A9AF803700436203FA5
:10550000FCB25A2C88BF0027FCB227015EF8077056
:105510000EEB041445F8207F6768D4F808B0E468FF
:105520006F60C5F88440C5F880B09AF80440203C0C
:10553000E7B25A2F88BF0024E4B20EEB041724010F
:105540005EF804B07C68D7F80880FF68EC60C5F8A6
:1055500008B0C5F88880C5F88C709AF80540203CE2
:10556000E7B25A2F88BF0024E4B20EEB04172401DF
:105570005EF804807C68D7F808B0FF686C61C5F8F5
:105580001080C5F890B0C5F894709AF80640203C99
:10559000E7B25A2F88BF0024E4B227015EF80770F3
:1055A0000EEB0414AF616768D4F80880E468EF611B
:1055B0000CEB06070437C5F89880C5F89C4099D1D4
:1055C000DDF800A006F10408BAF1000F3FF481AF46
:1055D00011F8086000EBC219203EF4B25A2C88BFC3
:1055E0000026F6B237015EF8077003EBC8040EEB35
:1055F000061602F1010C49F80470776809EB0405FE
:10560000B268F66800EBCC106F600719BAF1010FB1
:1056100002517E603FF45DAF08F101028F5C03EB45
:10562000C202203FFEB25A2E88BF0027FFB23D01C2
:105630005EF805500EEB071749F802507D6809EB3C
:105640000206BC68FF6875608618BAF1020F8450C4
:1056500077603FF43EAF08F10202895C03EBC202BF
:105660002039CFB25A2F88BF0021C9B20F015EF88E
:1056700007700EEB011149F802704F6809EB020345
:105680008E68C9685F60831886505960012001B038
:10569000BDE8F08F2DE9F047072A00F2C6804FF0F1
:1056A000000C11F80C70002F00F0B98001EB0C0613
:1056B0007778A7B3B778DFB3F778002F41D0377981
:1056C000002F47D07779002F4DD0B779002F53D0D6
:1056D000F779002F59D0377A002F5FD0777A002FD3
:1056E00065D0B77A002F6BD0F77A002F71D0377B57
:1056F000002F77D0777B002F7DD0B77B002F00F075
:105700008380F77B002F00F08880377C002F00F02B
:105710008F800CF1110CBCF1FF0FC2D185E00CF1B0
:10572000010C0CEB4C0703EB4707802F7DD887E07B
:105730000CF1020C0CEB4C0703EB4707802F74D8DD
:105740007EE00CF1030C0CEB4C0703EB4707802FBA
:105750006BD875E00CF1040C0CEB4C0703EB47071E
:10576000802F62D86CE00CF1050C0CEB4C0703EBBE
:105770004707802F59D863E00CF1060C0CEB4C075F
:1057800003EB4707802F50D85AE00CF1070C0CEBC5
:105790004C0703EB4707802F47D851E00CF1080C6A
:1057A0000CEB4C0703EB4707802F3ED848E00CF189
:1057B000090C0CEB4C0703EB4707802F35D83FE073
:1057C0000CF10A0C0CEB4C0703EB4707802F2CD88D
:1057D00036E00CF10B0C0CEB4C0703EB4707802F6A
:1057E00023D82DE00CF10C0C0CEB4C0703EB470716
:1057F000802F1AD824E00CF10D0C0CEB4C0703EBB6
:105800004707802F11D81BE00CF10E0C0CEB4C0756
:1058100003EB4707802F08D812E00CF10F0C0CEBBC
:105820004C0703EB4707802F0AD90020BDE8F0871B
:105830000CF1100C0CEB4C0703EB4707802FF4D84E
:105840005FEA0C6700F0A580ACF101074BF2F14E66
:105850000CF00308032FC0F2020E04D20027B8F1A7
:10586000000F61D195E000EBC2141C44A8EB0C0CB6
:1058700001F10109A4F10C076FF0030609EB060A18
:105880009AF803500436203DECB25A2C88BF00250C
:10589000ECB2640054FA85F40EEB44055EF8144053
:1058A000AD88FC603D829AF80440203CE5B25A2D58
:1058B00088BF0024E5B26D0055FA84F40EEB440570
:1058C0005EF81440AD88C7F81240FD829AF8054092
:1058D000203CE5B25A2D88BF0024E5B26D0055FA90
:1058E00084F40EEB44055EF81440AD8847F8184F79
:1058F000BD809AF80640203CE5B25A2D88BF0024AE
:10590000E5B26D0055FA84F45EF814500EEB4404D1
:10591000C7F80650A4880CEB060504357C81ADD190
:10592000371DB8F1000F34D0CE5D00EBC210203E21
:10593000F5B25A2D88BF0026F4B2640054FA86F6F8
:1059400007EB47055EF816400EEB460603EB4505F0
:10595000B6884219B8F1010F4451968019D07A1CCB
:105960008E5C02EB4202203EF5B25A2D88BF002623
:10597000F4B2640054FA86F65EF8164003EB420275
:105980000EEB460685188450B288B8F1020FAA8043
:1059900002D10120BDE8F087BA1C895C02EB42020B
:1059A0002039CFB25A2F88BF0021CFB27F0057FADB
:1059B00081F10EEB41075EF8111003EB4202BF8844
:1059C0008318815001209F80BDE8F08709B9402AE3
:1059D00001D900207047B0B500EBC1104BF214752F
:1059E0008418C0F20205204629464022FAF7A7FF94
:1059F00004F1800005F140014022FAF7A0FF04F510
:105A0000807005F180014022FAF799FF04F5C0701B
:105A100005F1C0014022FAF792FF04F5007005F588
:105A200080714022FAF78BFF04F5207005F5A07114
:105A30004022FAF784FF04F5407005F5C07140225A
:105A4000FAF77DFF04F5607005F5E0714022FAF782
:105A500076FF0120B0BD00008446072A4FF0000009
:105A600098BF7A2B00D970470CEBC210184449B18B
:105A70004CF27001818040F20461C1F60341016083
:105A80000120704744F22421818042F24241C1F654
:105A900018010160012070472DE9F0412DED048BC4
:105AA000044610EE900AB0EE608AB0EE409A24F000
:105AB000BDF99FED2B0B054653EC102B0E4624F041
:105AC000FCF9002844D119EE100A24F0AFF99FED3B
:105AD000260B0746884653EC102B2846314623F008
