:020000040000FA
:10000000007D0020A5030000AD030000295F000073
:10001000B1030000B3030000B503000000000000BE
:10002000000000000000000000000000B703000016
:10003000B903000000000000BB030000BD03000086
:10004000BF030000C1030000C3030000C50300009C
:10005000C7030000C9030000CB030000CD0300006C
:10006000CF030000D1030000D3030000D50300003C
:10007000D7030000D9030000DB030000DD0300000C
:10008000DF030000E1030000E3030000E5030000DC
:10009000E7030000E9030000EB030000ED030000AC
:1000A000EF030000F1030000F3030000F50300007C
:1000B000F7030000F9030000FB030000FD0300004C
:1000C000FF03000001040000030400000504000019
:1000D00007040000090400000B0400000D040000E8
:1000E0000F040000110400000000000013040000D1
:1000F0001504000017040000190400001B04000090
:100100001D0400001F04000021040000230400005F
:10011000000000000000000025040000270400008B
:10012000290400002B0400002D0400002F0400000F
:1001300031040000330400003504000037040000DF
:1001400000000000000000000000000000000000AF
:10015000390400003B0400003D0400003F0400009F
:10016000000000000000000000000000000000008F
:10017000000000000000000000000000000000007F
:10018000000000000000000000000000000000006F
:10019000000000000000000000000000000000005F
:1001A000000000000000000000000000000000004F
:1001B000410400004304000045040000470400001F
:1001C000490400004B0400004D0400004F040000EF
:1001D00051040000530400005504000057040000BF
:1001E000590400005B0400005D04000000000000F2
:1001F000000000005F0400006104000063040000D0
:10020000650400006704000000000000000000001A
:10021000690400006B0400006D0400006F0400001E
:1002200071040000730400007504000077040000EE
:10023000790400007B0400007D0400007F040000BE
:10024000810400008304000085040000870400008E
:10025000890400008B0400008D0400008F0400005E
:1002600091040000930400009504000000F002F8DF
:1002700000F070F80AA090E8000C82448344AAF1D0
:100280000107DA4501D100F065F8AFF2090EBAE8CE
:100290000F0013F0010F18BFFB1A43F001031847BA
:1002A00000F8020020F802000A444FF0000C10F899
:1002B000013B13F0070408BF10F8014B1D1108BFE4
:1002C00010F8015B641E05D010F8016B641E01F884
:1002D000016BF9D113F0080F1EBF10F8014BAD1CD4
:1002E0000C1B09D16D1E58BF01F801CBFAD505E0F2
:1002F00014F8016B01F8016B6D1EF9D59142D6D34C
:10030000704700000023002400250026103A28BF73
:1003100078C1FBD8520728BF30C148BF0B60704777
:1003200066292AF07586642900F05C8100207047F8
:100330001FB52AF01EFE9DE8030000F08BFB00F0C5
:1003400053FE04000020002129F00CFFE0601FBDD7
:1003500010B510BD00F069FF1146FFF7E9FF1EF070
:10036000F7F900F087FF03B4FFF7F2FF03BC16F0C4
:10037000F5FD00000138FDD170470000EFF310805B
:1003800072B67047EFF310807047EFF3108062B6DB
:10039000704730BF704780F311887047EFF31180CA
:1003A000704700003F4880473F480047FEE7FEE7B0
:1003B000FEE7FEE7FEE7FEE7FEE7FEE7FEE7FEE715
:1003C000FEE7FEE7FEE7FEE7FEE7FEE7FEE7FEE705
:1003D000FEE7FEE7FEE7FEE7FEE7FEE7FEE7FEE7F5
:1003E000FEE7FEE7FEE7FEE7FEE7FEE7FEE7FEE7E5
:1003F000FEE7FEE7FEE7FEE7FEE7FEE7FEE7FEE7D5
:10040000FEE7FEE7FEE7FEE7FEE7FEE7FEE7FEE7C4
:10041000FEE7FEE7FEE7FEE7FEE7FEE7FEE7FEE7B4
:10042000FEE7FEE7FEE7FEE7FEE7FEE7FEE7FEE7A4
:10043000FEE7FEE7FEE7FEE7FEE7FEE7FEE7FEE794
:10044000FEE7FEE7FEE7FEE7FEE7FEE7FEE7FEE784
:10045000FEE7FEE7FEE7FEE7FEE7FEE7FEE7FEE774
:10046000FEE7FEE7FEE7FEE7FEE7FEE7FEE7FEE764
:10047000FEE7FEE7FEE7FEE7FEE7FEE7FEE7FEE754
:10048000FEE7FEE7FEE7FEE7FEE7FEE7FEE7FEE744
:10049000FEE7FEE7FEE7000004480549054A064B73
:1004A000704700002D6A01006D02000000700020FE
:1004B000007D00200073002000730020704770B59D
:1004C000064600F0ABFA056806F10B0020F00704C1
:1004D000B4429CBF002070BD2B466A68BAB1106858
:1004E000A04210D304F1080188423CBF5068586014
:1004F00007D35168101941601168091B01605860E9
:100500001460101D70BD13465268002AE7D12146C1
:10051000284600F08BFA0028DED170BD70B5044685
:10052000051F00F07BFA0068002C14BF446870BD02
:10053000002C18BFAC423CBF20466468F8D3016869
:100540000A18AA4218BF456003D12A68054611441B
:10055000016028684119A1421CBF6C6070BD6168D0
:10056000696021680844286070BD00000FB41CB5A4
:10057000074B06AA7B4469460090059800F017FDDA
:100580000020694600F026FD1CBC5DF814FB00004D
:100590005D0A000070B5044685690068C10601D592
:1005A000302600E02026C00707D070BDD4E9012125
:1005B00030469047206A401C20626D1EF6D570BD03
:1005C00070B5044685690078C00707D170BDD4E9CD
:1005D000012120209047206A401C20626D1EF6D524
:1005E00070BD00002DE9F041064600241068752911
:1005F000314616A510D0AFF30080002802DA404241
:1006000013A507E031688A0701D512A502E0490762
:1006100004D511A5012401E0AFF3008000210A22D6
:1006200006F1240709E0B0FBF2FCB0FBF2F302FB99
:100630001C00303078541846491C0028F3D123465A
:100640002A463046BDE8F04100F045BA00000000FF
:100650002D0000002B000000200000002DE9F047D5
:100660004FF0000A89460446C0F820A02046E16801
:100670008847002876D0252806D0D4E90121904764
:10068000206A401C2062F1E7E16820460026884786
:10069000C4F81CA005460027C4F818A02A2D09D0CC
:1006A000284629F0FBF838B304EB8708303DC8F83A
:1006B000185019E059F8041B204604EB8702916199
:1006C000E1688847012F054618D1E069002820DA43
:1006D00026F020061DE0D8F8180000EB800005EB9E
:1006E00040003038C8F818002046E16888470546C1
:1006F00029F0D4F80028EED1012F0AD02E2D08D1F0
:100700002046E16888477F1C0546022F46F02006F8
:10071000C4DBA069002803DA404246F00106A0616C
:10072000F00701D026F010066C2D0AD0682D08D0F5
:100730004C2D39D06A2D35D0742D35D07A2D33D04B
:1007400016E0E1682F4620468847B84205460AD1A0
:100750006C2F27D04FF48060E1680643204688471D
:10076000054605E027E06C2F1AD04FF48070064351
:100770000DB3A5F14100192802D8203546F40066D2
:100780004A462946204626604E46FFF7C9FD80B1FD
:1007900001280BD0F61D26F0070000F1080965E7D7
:1007A0004020E4E78020D7E70020D5E706F10409E0
:1007B0005CE7284661E7206ABDE8F08740EA01036C
:1007C00010B59B070FD1042A0DD310C808C9121FFA
:1007D0009C42F8D020BA19BA884201D9012010BD34
:1007E0004FF0FF3010BD1AB1D30703D0521C07E001
:1007F000002010BD10F8013B11F8014B1B1B07D165
:1008000010F8013B11F8014B1B1B01D1921EF1D1D5
:10081000184610BD032A40F2308010F0030C00F09F
:10082000158011F8013BBCF1020F624498BF11F82A
:1008300001CB00F8013B38BF11F8013BA2F10402E3
:1008400098BF00F801CB38BF00F8013B11F003035B
:1008500000F02580083AC0F0088051F8043B083ABF
:1008600051F804CBA0E80810F5E7121D5CBF51F861
:10087000043B40F8043BAFF30080D20724BF11F8DB
:10088000013B11F801CB48BF11F8012B24BF00F840
:10089000013B00F801CB48BF00F8012B704710B5B1
:1008A000203AC0F00B80B1E81850A0E81850B1E829
:1008B0001850A0E81850203ABFF4F5AF5FEA027C68
:1008C00024BFB1E81850A0E8185044BF18C918C098
:1008D000BDE810405FEA827C24BF51F8043B40F839
:1008E000043B08BF7047D20728BF31F8023B48BF1E
:1008F00011F8012B28BF20F8023B48BF00F8012B5C
:1009000070474FF000020429C0F0128010F0030C71
:1009100000F01B80CCF1040CBCF1020F18BF00F8F2
:10092000012BA8BF20F8022BA1EB0C0100F00DB8A1
:100930005FEAC17C24BF00F8012B00F8012B48BFFF
:1009400000F8012B70474FF0000200B513469446A3
:100950009646203922BFA0E80C50A0E80C50B1F117
:100960002001BFF4F7AF090728BFA0E80C5048BF2B
:100970000CC05DF804EB890028BF40F8042B08BFC9
:10098000704748BF20F8022B11F0804F18BF00F8C5
:10099000012B70470000000030B44FF0013C50F8CC
:1009A000042B51F8043BCCFA52F4D51A20D1FCB9EF
:1009B00050F8042B51F8043BCCFA52F4D51A17D155
:1009C000B4B950F8042B51F8043BCCFA52F4D51AC0
:1009D0000ED16CB950F8042B51F8043BCCFA52F408
:1009E000D51A05D1002CDAD030BC4FF0000070478A
:1009F00029BAB1FA81F111F01801D1F12000844037
:100A0000F2D1CA40CB4012F0FF0213F0FF0330BC1A
:100A1000D01A70477047704770477047004870475A
:100A2000D8090020704770477047704738B50446B2
:100A30000A4600206946AFF30080002808BF38BD91
:100A400002460099204600F0D7FA012038BD012067
:100A500000F0E4BBF8B5AFF30080054600200C467B
:100A6000102000BF0646A819A0420DD9324669469B
:100A70000020AFF30080070008BF00F0CFFB009814
:100A8000A04218BF0546C419FFF7C8FF0560074616
:100A9000F01D20F007004619284600F00AF8B4427D
:100AA00008BFF8BDA21B31463868BDE8F84000F029
:100AB000A3BA00210160C0E90110704710207047FF
:100AC00010B500F095FA006810BD10B5044600F0AE
:100AD0008FFA046010BD2DE9F0470D469946924605
:100AE000044600F124080168880604D5E06921F075
:100AF0001001216000E00120A84201DD471B00E059
:100B00000027A1697A1902EB0900081AA061207870
:100B1000C00602D42046FFF73DFD002608E0D4E9D8
:100B200001211AF806009047206A401C761C2062BA
:100B30004E45F4DB2078C0060AD52046FFF72AFD93
:100B400006E0D4E9012130209047206A401C206251
:100B5000381EA7F10107F4DC07E0D4E9012118F8F9
:100B600005009047206A401C2062281EA5F101055F
:100B7000F3DC2046FFF724FD2078000602D5022092
:100B8000BDE8F0870120FBE72DE9FF4F0C461E462C
:100B90004FF0FF378BB0D2E90001DDF860800A909A
:100BA0008A46C1F30A5505B93D46002108464FF073
:100BB0000000BAF1000F00F4400005DA00EB8000FD
:100BC0004FF4400101EA50004FEA9059B9F1010F8A
:100BD00000DDB9460A9850EA4A000ED044F610509B
:100BE000A5F2FF3545432F14B8F1000F1ED0754212
:100BF000291E1EDDC9F100021CE0B8F1010F4FF003
:100C0000000001D0302103E0F24305E02154401CF4
:100C1000B042FBDB30460022002121540B99C1F881
:100C20000880C1E900200FB0BDE8F08FBD1B6D1C2E
:100C3000DEE74A4600DA694206A800F07DFA06AB14
:100C400093E8070003AB83E8070050460A9921F0B8
:100C5000D3FC8DE80700A0F500501F3800900398E2
:100C6000002D0ADD42F21F014A460844002303A971
:100C70000390684621F03CFF09E0A0F500504A4689
:100C80001F38002303A90390684621F046FF8DE832
:100C900007000004000C03D04FF0FF30410800E0D3
:100CA0001046B8F1000F03D00022009215461EE056
:100CB000751E05D400F0BAF9303262556D1EF9D5B3
:100CC000B3460122084302D000227F1C04E02078B2
:100CD000302801D100227F1E002A099784D01DE010
:100CE000112D07DA00F0A2F9303262556D1C50EA7E
:100CF0000102F5D1084302D00098C8B10EE00021EE
:100D0000681E05E0235C625C63542254401E491C4B
:100D10008142F7DBAB46A81B401E0990002004F877
:100D20000B000B98099AC0F80880C0E9002B7AE7FD
:100D300011264FF0000857E72DE9F04F884604468A
:100D4000D21D22F0070191B0D1E90001CDE90A01DD
:100D500025F036FB02460B98C00F01D02D2007E08E
:100D60002068810701D52B2002E0202101EAC00084
:100D7000032A099001D0072A05DB03464146204695
:100D800000F09AF90BE12078800601D5E06900E0D7
:100D90000620B8F1650F814606D0B8F1660F18D06D
:100DA000B8F1670F70D131E00020B9F1110F009058
:100DB00001DB112301E009F101030AAA01A90CA832
:100DC000FFF7E2FEDDE90C70002609F1010583461C
:100DD00047E001204B4600904FF000470AAA01A9C6
:100DE0000CA8FFF7D1FEDDE90DB00C995D46002699
:100DF00010B909F101000D18B9EB050003D4C0F1D9
:100E0000FF3609F10105A5EB09002BE0B9F1010F4F
:100E100001DA4FF001090020B9F1110F00904846A6
:100E200001DD112300E003460AAA01A90CA8FFF77F
:100E3000ABFEDDE90C704D460026834620780007A6
:100E40000AD4AB4500DA5D4601A8012D04DD411945
:100E500011F8011C302907D04F4502DA17F1040FB1
:100E600004DA012082460FE06D1EEEE7002F02DC5F
:100E7000ED1B3E4403E0781CA84200DD7D1CB81B3E
:100E800000F1010A4FF000472078000703D4AA457B
:100E900001DB4FF0FF3A0021B7F1004F0DF143089D
:100EA0008DF8431024D002202B23002F01DA7F423B
:100EB0002D230A21021EA0F1010000DC5FB197FB87
:100EC000F1FC97FBF1F201FB1C7C17460CF1300C96
:100ED00008F801CDEEE7A8F10100037021880905AB
:100EE00001D5452100E06521A0F1010800F8011CB1
:100EF00009980FA9A1EB0807FF1D00B101204119B6
:100F000001EBEA70A1693844081A401EA0612078FC
:100F1000C00602D42046FFF73DFB099828B1D4E96A
:100F200001219047206A401C20622078C00622D50B
:100F30002046FFF72FFB1EE0002E04DBB34502DD49
:100F400001A8805D00E03020D4E901219047206AAB
:100F5000401C2062761CAAF101005FEA000A0AD157
:100F600000F042F8C0680168405CD4E90121904774
:100F7000206A401C2062281EA5F10105DCDC07E088
:100F8000D4E9012118F8010B9047206A401C206227
:100F9000381EA7F10107F3DC2046FFF711FB032001
:100FA00011B041E601694A1C02610878704700B53A
:100FB0008FB0CDE901310021059105497944CDE992
:100FC000031011466846FFF749FB0FB000BD000053
:100FD000E5FFFFFF0A6802F8010B0A607047000096
:100FE00000487047D009002000487047F0090020F1
:100FF00000487047D0090020034640688C4600280E
:1010000018BF88423CBF03464068F8D318681844AC
:10101000884207D00CF1030020F00700001D411AA0
:10102000521A0146081D0A60FFF778BA30B5B0F1D0
:101030000A0271F100034FEA900E4EEA817EB0EB96
:101040000E0061EB91014FEA101E4EEA017E10EB9B
:101050000E0041EB11114FEA102E4EEA016E10EB1B
:101060000E0041EB11214FEA104E4EEA014E10EBFB
:101070000E0041EB1141401841F100014FEAD00050
:1010800040EA41704FEAD1014FEA810444EA90748A
:1010900010EB800544EB01046D1944EB0404521B72
:1010A000A3414FF0000348BF0A3200D530BD401CB9
:1010B00041F1000130BD00002DE9F0411F4604461A
:1010C00003260168072A01F4006004DB08B116A5B5
:1010D00005E016A503E008B115A500E015A521F06F
:1010E00010002060A069C01EA0610FB1401EA06169
:1010F0002046FFF74FFA4FB1D4E901213846904717
:10110000206A401C2062C01C206206E0206AFAE7C8
:10111000D4E9012115F8010B9047761EF8D220463C
:10112000FFF74EFABDE8F0814E414E006E616E0051
:10113000494E4600696E66002DE9F0478146164625
:101140008AB0354878440DC88DE80D00324878449F
:10115000801C03AC0DC884E80D0041F69B300844A8
:10116000372190FBF1F290FBF1F5A5F1800501FB31
:1011700012041B3C02D56442012000E00020DFF88D
:1011800098A080460027FA44AAF1BE0A0EE0E007C4
:101190000AD03246684607EB470101230AEB81017A
:1011A00021F0BBFC8DE8070064107F1C002CEED101
:1011B000194F7F44AE3F19E0E80715D007EB041044
:1011C0000DF1180A90E80E008AE80E00C068F0429F
:1011D00001D1981908903246012306A903A821F0ED
:1011E0009CFC03AB83E807006D10641C002DE3D169
:1011F0004FF0010332466946B8F1000F03A802D050
:1012000021F076FC01E021F088FCC9E90001C9F871
:1012100008200AB0BDE8F08704AD020010B500F068
:1012200037F8BDE8104000F02EB87546FFF7D8FE3D
:10123000AE4605006946534620F00700854618B0C3
:1012400020B5FFF729F9BDE820404FF000064FF028
:1012500000074FF000084FF0000BAC46ACE8C009A7
:10126000ACE8C009ACE8C009ACE8C00921F007014E
:101270008D46704710B50446AFF300802046BDE8A8
:101280001040FFF770B8002801D015F067BE704716
:1012900010B5012805D0002103A000F021F801209D
:1012A00010BD09A1F8E7000053494752544D454D80
:1012B0003A204F7574206F662068656170206D65F7
:1012C0006D6F7279000000003A2048656170206DF2
:1012D000656D6F727920636F7272757074656400EA
:1012E00070B505460C460A2000E06D1C15F038FE6E
:1012F00035B128780028F8D102E0641C15F030FEE2
:1013000014B120780028F8D1BDE870400A2015F00B
:1013100027BE000010B52DED028B48F2AC04C4F2DC
:1013200003042068C0053BD42068C0051AD400BF60
:1013300054F8040C2168C9055EBF54F8040C2168F8
:101340005FEAC15109D454F8040C2168C90504D4DA
:1013500054F8040C2168C905EAD500EE100AB8EE6D
:10136000400A01E09FED130A9FED131A80EE010A77
:101370009FED121A20EE018A02F01AF841F6D850B9
:10138000C2F2000090ED001A28EE000A9FED0C2A30
:1013900030EE410A20EE020A31EE000A80ED000A2A
:1013A000A4F1AC000321BDEC028BBDE8104021F09C
:1013B000F4BC00BF0000000000F07F453333534011
:1013C0000AD7A33C40F62C51C2F20001087801284C
:1013D0004FF0000018BF70474A780870012A1CBF00
:1013E000012070470020487001207047B0B540F6DA
:1013F0002C55C2F20005287878B919F067FC01284D
:101400000BD140F29800C2F200000A2101240170C1
:101410002C7000F017F82046B0BD0020B0BD0000D1
:1014200080B540F6AC41C2F20001487801284FF087
:10143000000018BF80BD4870FFF7C4FF13F096FE90
:10144000012080BD2DE9F04381B02DED068B40F6E3
:10145000AC45C2F20005687830B100242046BDECEE
:10146000068B01B0BDE8F08319F03EFC01284FF077
:101470000004F3D10120687019F01AFC14F0EEF9A1
:101480000020012185ED060AAC7002F05BF8002017
:101490000221B0EE408A02F055F800200321B0EEA0
:1014A000409A02F04FF800200421B0EE40AA02F06A
:1014B00049F843F244554DF2A546C2F20005C5F283
:1014C00068360120012185ED058A85ED069A85EDB6
:1014D00007AA85ED080AC5E90966C5E90B66C5E9ED
:1014E0000D66C5E90144C5E9034402F02BF801206B
:1014F0000221B0EE408A02F025F801200321B0EE6F
:10150000409A02F01FF801200421B0EE40AA02F038
:1015100019F80220012185ED148A85ED159A85EDD3
:1015200016AA85ED170AC5E91866C5E91A66C5E960
:101530001C66C5E91044C5E9124402F003F8022014
:101540000221B0EE408A01F0FDFF02200321B0EE3F
:10155000409A01F0F7FF02200421B0EE40AA01F00A
:10156000F1FF85ED238A85ED249A85ED25AA85ED89
:10157000260AC5E92766C5E92966C5E92B66C5E9D6
:101580001F44C5E9214401F0BDFF0020B0EE408AB0
:1015900001F0F0FFB7EE009A89EE081A41F2E87503
:1015A00043F23337002640F2000844F20009C2F249
:1015B0000005C3F63377C4F22016C4F2FA38C4F239
:1015C0009C59C5E90076C5E90289C5E906442C6243
:1015D0002C6485ED048A85ED051A85ED110AC5E9AF
:1015E0000A44C5E90C4401F08DFF0120B0EE408AA9
:1015F00001F0C0FF89EE081A0220C5E91376C5E99B
:101600001589C5E91944EC66C5F88C4085ED178A43
:1016100085ED240A85ED181AC5E91D44C5E91F4466
:1016200001F0A8FF00204DF20A71C4F24830C3F661
:10163000A331C5F8B840C5F8D840C5E92676C5E954
:101640002800C5E92A10C5E92C4485ED370AC5E90B
:101650003044C5E9324401242046BDEC068B01B07C
:10166000BDE8F08340F6AC40C2F2000090ED080AFD
:101670007047000040F6AC40C2F2000090ED070A4F
:101680007047000080B52DED068BB0EE409A20EE3D
:10169000000A20EEA01A30EE01AAB0EE4A0AB0EE1F
:1016A000608A27F00AFBB4EE400AF1EE10FA1CD66D
:1016B0009FED141AB4EE410AF1EE10FA05DD81EE49
:1016C000000A20EE099A20EE088A40F6AC40C2F2E9
:1016D00000004178012911BF002080ED079A80EDBC
:1016E000088A0120BDEC068B80BDB0EE4A0A27F0C7
:1016F000E4FA9FED041AB4EE410AF1EE10FAE4DDCB
:10170000DDE700BFCDCC4C3F10B540F6AC44C2F293
:101710000004607801281CBF002010BDA07884ED73
:10172000060A68B119F0C4FA14F098F843F244506C
:10173000C2F2000080ED1F0A0020A070012010BD41
:10174000012010BD40F6AC41C2F2000148780128EA
:1017500011BF002081ED090A012088707047000048
:1017600010B52DED028B40F6AC44C2F20004607857
:10177000012810D1B0EE408A19F09AFA14F06EF8F0
:10178000A07860B143F24450C2F2000080ED1F0A1D
:101790000020A07009E00020BDEC028B10BD43F2D8
:1017A0004450C2F2000090ED1F0A30EE080A84EDAA
:1017B000060A0120BDEC028B10BD000040F6AC40D3
:1017C000C2F200004178012912BF002080ED050A15
:1017D0000120704740F6AC40C2F200004178012978
:1017E0001CBF00207047817801291CBF0120704771
:1017F00002218170012070472DE9F04F81B02DED5D
:10180000108B84B0002004F07DFB417881B1817899
:1018100071B190F8221008290AD8012202FA01F1C8
:1018200011F4B47F04D090F82300002800F09980D0
:10183000012004F067FB417881B1817871B190F8A3
:10184000221008290AD8012202FA01F111F4B47F0A
:1018500004D090F82300002800F08580022004F0D6
:1018600051FB417879B1817869B190F8221008294B
:1018700009D8012202FA01F111F4B47F03D090F8E3
:101880002300002871D0032004F03CFB417879B19B
:10189000817869B190F82210082909D8012202FA4A
:1018A00001F111F4B47F03D090F8230000285ED03A
:1018B000042004F027FB417879B1817869B190F870
:1018C0002210082909D8012202FA01F111F4B47F8B
:1018D00003D090F8230000284BD0052004F012FB21
:1018E000417871B1817861B190F82210082908D847
:1018F000012202FA01F111F4B47F02D090F8230022
:10190000C8B3062004F0FEFA417871B1817861B164
:1019100090F82210082908D8012202FA01F111F4E6
:10192000B47F02D090F8230038B3072004F0EAFA1D
:10193000417871B1817861B190F82210082908D8F6
:10194000012202FA01F111F4B47F02D090F82300D1
:10195000D0B140F620600021C2F20000416100F0E9
:1019600028BC002011E001200FE002200DE0032040
:101970000BE0042009E0052007E0062005E000BF99
:10198000000000006F12833A0720C0B204F0BAFAD8
:1019900040F6A071C768C2F20001D1E90032574099
:1019A000024652F8086F73403B4303D00378002B84
:1019B00001F06C8140F6A06040F620620021C2F286
:1019C0000002C2F2000092ED040AC0E9061150695B
:1019D00040F620640130C2F20004606119F09CFD01
:1019E000B0EE408A94ED040AB0EE609AB0EE41AADF
:1019F000B0EE61BA19F0B0FC40F6A06546F2305482
:101A0000B0EE414AB0EE402A1FED23CAB0EE603A74
:101A10000420C2F20004C2F2000594ED016A95EDC3
:101A2000061A94ED050A94ED027AD4ED030AD4ED7A
:101A3000041A31EE465A94ED091A207065EE002A18
:101A4000B0EE4C5AF4EEC12AF1EE10FA0EDC94ED31
:101A50000A1AB0EE4C5AB1EE411AF4EEC12AF1EE78
:101A600010FAA4BFB0EE405AB0EE621AD4ED063AB6
:101A7000D4ED0B4A67EE457A31EE47DA60EEC56A7F
:101A800061EE852A20EE850A67EE055A37EEE05AA8
:101A900036EEE11AF0EE4C6A63EE8D7AF4EEE47AFB
:101AA000F1EE10FA0EDCD4ED0C4AF0EE4C6AF1EED9
:101AB000644AF4EEE47AF1EE10FAA4BFF0EE636A41
:101AC000F0EE674A74EEE53AD4ED074A15EE260AC1
:101AD000D4ED0D5A51EE262AF0EE4C6A33EEE05A60
:101AE00070EE613A24EE851AB4EEE51AF1EE10FAC2
:101AF0000EDC94ED0E5AF0EE4C6AF1EE455AB4EE5F
:101B0000E51AF1EE10FAA4BFF0EE415AF0EE646A65
:101B100070EE254AD4ED085A43EEA62A94ED100A39
:101B2000D5ED076A1FED69DA94ED111A94ED125A9A
:101B3000042074EEE13AD4ED184A45EEA32AD4ED20
:101B4000143A76EEC05A07EE0D6A00EE8D7A41EE39
:101B50008D0A42EE8D1AD4ED132A84F83C0084EDF0
:101B6000016A84ED027AC4ED030AF0EE4C0A65EED8
:101B7000A35AC4ED041AF4EEE45AF1EE10FA0EDCA6
:101B800094ED196AF0EE4C0AF1EE464AF4EEE45A8E
:101B9000F1EE10FAA4BFF0EE630AF0EE654AD4ED60
:101BA000156A74EEC17AD4ED1A3A65EE601A61EEE8
:101BB000605A22EEA06A25EE207A61EE204A71EE8C
:101BC000E20A75EEC51AF0EE4C5A66EEA77AF4EE0C
:101BD000E37AF1EE10FA0EDCD4ED1B3AF0EE4C5A3B
:101BE000F1EE633AF4EEE37AF1EE10FAA4BFF0EE10
:101BF000665AF0EE673A73EEE46AD4ED163A11EEE7
:101C0000A57AD4ED1C4A10EEA56AF0EE4C5A76EE99
:101C1000C51A77EE620A63EEA11AF4EEE41AF1EE49
:101C200010FA0EDCD4ED1D4AF0EE4C5AF1EE644A87
:101C3000F4EEE41AF1EE10FAA4BFF0EE614AF0EE11
:101C4000635A37EE247AD4ED171A00EEA56A01EE36
:101C50000D0A05EE0D1A02EE8D5AF0EE490A37EE26
:101C6000627A84ED100A84ED111A84ED125AB0EEF6
:101C7000480AB0EE4A1A01EE876AF0EE4B1A46EEB9
:101C80000D2AC4ED132AF0EE432AB0EE443A13F0C5
:101C900005FF44F24016B0EE401A0420C2F20006DE
:101CA00096ED014A96ED052A96ED025A96ED036AE5
:101CB00096ED047A30EE443A96ED090A307063EE00
:101CC000021AB0EE4C3AF4EEC01AF1EE10FA0EDC45
:101CD00096ED0A0AB0EE4C3AB1EE400AF4EEC01AA4
:101CE000F1EE10FAA4BFB0EE423AB0EE610AD6EDC2
:101CF000062A70EE456AD6ED0B3A26EE432A65EECB
:101D0000435A67EE031A26EE030A65EE034A35EEE0
:101D1000C63A32EE472AF0EE4C5A62EEA66AF4EE6C
:101D2000E36AF1EE10FA0EDCD6ED0C3AF0EE4C5A06
:101D3000F1EE633AF4EEE36AF1EE10FAA4BFF0EECE
:101D4000625AF0EE663A73EEE42AD6ED073A13EEE5
:101D5000250AD6ED0D4A52EE251AF0EE4C5A32EE17
:101D6000C63A70EE472A23EE832AB4EEE42AF1EE57
:101D700010FA0EDC96ED0E3AF0EE4C5AF1EE434AB4
:101D8000B4EEE42AF1EE10FAA4BFF0EE424AF0EE0F
:101D9000635A70EE243AD6ED084A42EEA51A96ED43
:101DA000100A05EE0D4A06EE0D5A96ED112A96ED33
:101DB000123A042007EE0D6A73EEC72AD6ED183AE0
:101DC00044EEA21AD6ED142A70EEC04A01EE8D7AC6
:101DD000D6ED131A86F83C0086ED014A86ED025ACC
:101DE00086ED036AB0EE4C6A64EEA24A86ED047A90
:101DF000F4EEE34AF1EE10FA0EDC96ED194AB0EE7D
:101E00004C6AF1EE443AF4EEE34AF1EE10FAA4BF64
:101E1000B0EE626AF0EE643AD6ED154A73EEC26A2D
:101E2000D6ED1A2A23EE467A62EE465A21EE864A0B
:101E300023EE065A62EE063A37EE616A35EEC37A51
:101E4000F0EE4C5A64EEA66AF4EEE26AF1EE10FA95
:101E50000EDCD6ED1B2AF0EE4C5AF1EE622AF4EEBF
:101E6000E26AF1EE10FAA4BFF0EE645AF0EE662AD0
:101E700072EEE34AD6ED162A17EE255AD6ED1C3A35
:101E800016EE254A34EEC37A35EE616AF0EE4C4A1E
:101E900022EE877AB4EEE37AF1EE10FA0EDCD6ED9C
:101EA0001D3AF0EE4C4AF1EE633AB4EEE37AF1EE0D
:101EB00010FAA4BFF0EE473AF0EE624A35EE235A2C
:101EC00096ED177A06EE244A02EE0D0A03EE0D2A6D
:101ED00001EE8D3A86ED100A35EE615AB0EE600AD9
:101EE000F0EE410A86ED112A86ED123A07EE054A18
:101EF00044EE0D1AC6ED131A25F082F9D5ED068AC7
:101F0000B0EE409A25F06CFBB0EE40AAD5ED079AF2
:101F1000B0EE490A26F0CCFDB0EE40BA95ED06EAE7
:101F2000B0EE490A26F0C4FDB0EE408A95ED07FAFE
:101F300041F20035B0EE490A29EE8BBAC2F2000533
:101F400025F04EFB95ED014A08EE8ABA95ED052A7B
:101F500095ED091A95ED025A95ED036A95ED047A0F
:101F6000042028703BEE443A63EE020AB0EE4C3A8D
:101F7000F4EEC10AF1EE10FA0EDC95ED0A1AB0EE9D
:101F80004C3AB1EE411AF4EEC10AF1EE10FAA4BFD8
:101F9000B0EE423AB0EE601AD5ED063A71EE455A0F
:101FA000D5ED0B1A26EE432A65EE434A6FEE000A82
:101FB00027EE030A26EE031A65EE032A34EEC63A2C
:101FC00032EE472AF0EE4C4A63EEA55AF4EEE15A9F
:101FD000F1EE10FA0EDCD5ED0C1AF0EE4C4AF1EEF3
:101FE000611AF4EEE15AF1EE10FAA4BFF0EE634A82
:101FF000F0EE651A71EEE21AD5ED072A13EE241AF7
:10200000D5ED0D3A12EE240A4EEE480AF0EE4C4A97
:1020100031EEC63A71EE471A22EE832AB4EEE32A75
:10202000F1EE10FA0EDC95ED0E3AF0EE4C4AF1EEC0
:10203000433AB4EEE32AF1EE10FAA4BFF0EE423ACE
:10204000F0EE624A71EE232AD5ED083A95ED101AAA
:1020500001EEA40A05EE0D4A06EE0D5A07EE0D6AD2
:1020600095ED112A95ED123A042072EEC71AD5EDBE
:10207000142A03EEA10AD5ED131A70EEC10A00EE80
:102080000D7A95ED180A60EEA20A85F83C0085ED00
:10209000014A85ED025AB0EE4C5A85ED036A85ED92
:1020A000047AF4EEC00AF1EE10FA0EDC95ED190A8E
:1020B000B0EE4C5AB1EE400AF4EEC00AF1EE10FA5E
:1020C000A4BFB0EE625AB0EE600A95ED157A70EEDC
:1020D000424AD5ED1A0A23EE456A62EE453A21EEF0
:1020E000850A23EE054A62EE052A36EE615A33EE82
:1020F000C36AF0EE4C3A67EE244AF4EEE04AF1EEA1
:1021000010FA0EDCD5ED1B0AF0EE4C3AF1EE600A47
:10211000F4EEE04AF1EE10FAA4BFF0EE473AF0EE2A
:10212000640A70EEE22AD5ED160A16EE234A95ED02
:102130001C7A15EE230A32EEC36A34EE615A20EEA1
:10214000866AB4EEC76AF1EE10FA0CDC95ED1D7AE2
:10215000B1EE477AB4EEC76AF1EE10FAA4BFB0EE62
:10216000467AB0EE60CA34EE074A95ED176A05EE7E
:102170000C0A02EE0D1A03EE0D2A01EE8D3AD4ED93
:10218000010A34EE614A85ED101A85ED112A85EDBC
:10219000123A06EE040A40EE0D1A94ED100AC5ED4F
:1021A000131A25F02DF8D6ED010A96ED100A25F048
:1021B00027F8002041F6742A40F62065FEEE009ACA
:1021C000F6EE008AF7EE00AAB2EE048A4FF000089D
:1021D0004FF000098DF80E00ADF80C0041F29000B0
:1021E000C2F2000AC2F20005C2F2000000F150047F
:1021F00041F26010C2F20000061D4CF60410C0F25D
:1022000002000078009000BF5FFA89F003F06CFED6
:1022100083460078002800F0E58144F6045044F637
:102220000C51029444F66877C2F20000C2F2000139
:10223000C2F20007007800284FF6FF7018BF012097
:102240000988A1EB0002134618BF96338842314635
:1022500098BF1346D5E91202D5E9146C3C7800EB1F
:10226000830044F67073002C4FF6FF74C2F2000333
:102270001B8818BF0124A3EB04073D4618BF963501
:102280009C4245F2D41398BF3D4645F2CC17C2F2AA
:102290000003C2F200071B8802EB85023F78002F83
:1022A0004FF6FF7718BF0127A3EB0704254618BF99
:1022B00096359F4245F23047C2F2000798BF254647
:1022C0003F7806EB850345F23846C2F20006002F40
:1022D0004FF6FF7718BF01273688A6EB070425467F
:1022E00018BF9635B74211ED010A9BED093A91ED01
:1022F000001A9BED0A4A019191ED012A9BED0B5AC0
:1023000098BF254690ED00FA009893ED00DA92ED23
:1023100000EA0CEB850135EE429A34EE41AA33EE29
:1023200040BA91ED00CA484521D001F085F8B0EEE1
:10233000603AB0EE615AB0EE414AB0EE402AB0EEDB
:102340004F0AF0EE4E0AB0EE4D1AF0EE4C1AF0EED7
:10235000432AB0EE443AF0EE453A13F0F9F9B0EE04
:1023600040FAB0EE60EAB0EE41DAB0EE61CA029C2B
:10237000B0EE4F0AF0EE4E0AB0EE4D1AF0EE4C1AE7
:10238000B0EE4B2AF0EE4A2AB0EE493A13F086FB43
:10239000D4E90001B0EE40BAB0EE60AAB0EE419AC6
:1023A00014F090FB002800F02981D4E90023DBE938
:1023B000020140F62065019EC2F200054B404240FA
:1023C0001A4300F04B829AED021A9AED010A9AED37
:1023D000063A9AED074A9AED032A9AED085A9AEDC1
:1023E000046A9AED097AC4E9000103A8012100F802
:1023F0000910042041F628317BEE400AF0EE414AF4
:102400007AEE431AF0EE446A62EE293A65EE295AF2
:1024100061EE292AC2F2000150EEA84A51EEA86AE4
:1024200064EE290A72EEC21A44EEA82A73EEC67A46
:1024300070EEC54A46EEA80A41EEA83A35EEC7AAA4
:1024400067EEA81A44EEA85A46EE681A6AEE284AC1
:1024500072EEC22A70EEC50A73EEC66A42EEA83A60
:1024600047EE684A46EEA81A75EEC72A40EEA85A0B
:10247000DBED040A73EEC63A8AF800008AF814000D
:1024800042EEA84A43EEA81A00EE810A00EE821A34
:1024900000EE862A00EE843A00EE854A00EE875A66
:1024A00000EEA16A8AED010A75EEC72A8AED021ACA
:1024B0008AED032A8AED046A8AED063A8AED074A14
:1024C0008AED085A42EEA84A00EEA47A8AED097A0B
:1024D0008AF8280011F808009AED0C1A9AED0B0AF8
:1024E0009AED0D2A9AED0E3A002839EE404AB0EEE8
:1024F000417A22EE296A21EE295A00EE810A00EE85
:10250000821A14EE287A8AED0B0A35EE424A76EEEC
:10251000431A8AED0C1A07EE285A04EE286A21EEB7
:10252000A84A35EE425A36EE437A00EE832A03EE8D
:10253000684A05EE286A8AED0D2A07EE284A36EE2B
:10254000435A05EE284A00EE843A8AED0E3A9BED96
:10255000090A00F0B28001EB080090ED071A90ED37
:10256000083A90ED014A90ED025AD0ED090A90ED3B
:10257000036AD0ED0A1A90ED047A31EE012A30EEAA
:10258000022A33EE022A90ED0B3A24EE022A90ED55
:102590000C4A00EEC52A01EEC62A90ED0D6A33EE14
:1025A000035AD0ED061A32EE055A34EE054A90ED84
:1025B000055A27EE044A90ED0E7A80ED070A80ED69
:1025C000081A80ED092AC0ED0A0A80ED0B2A80ED79
:1025D0000C3A06EE454A07EE614A80ED0D4A80ED61
:1025E0000E6A7CE0204614F071FA37E1000000002A
:1025F0000BD7233C0AD7A33CCDCC4C3D002041F661
:102600002834F0EE480ACAE90200CAF810008AED40
:1026100001BACAE90700CAF824008AED06AACAE985
:102620000C00CAF838008AED0B9AC2F20004DBF8FD
:10263000240004EB0806C6E90700C6E90900C6E95C
:102640000B00C6E90D00DBF82800C6E91600C6E954
:102650001800C6E91A00C6E91C00DBF82C00C6E920
:102660002500C6E92700C6E92900C6E92B00304647
:102670009BED040A8AEE800A02F09EFE14F8080020
:10268000371D86F83C008ECFD6E9055486F87800D1
:1026900006F140008EC006F17C00C6E914548EC0DD
:1026A000C6E9235440F62065029CDBE90201019E45
:1026B000C2F20005C4E90001D0E001EB080080EDA2
:1026C000070A80ED080A80ED090A80ED0A0A80ED0C
:1026D0000B0A80ED0C0A80ED0D0A80ED0E0A01EB6D
:1026E00008009BED0A0A90F83C10002900F08F804A
:1026F00090ED161A90ED173A90ED104A90ED115AA0
:10270000D0ED180A90ED126AD0ED191A90ED137AF7
:1027100031EE012A30EE022A33EE022A90ED1A3A07
:1027200024EE022A90ED1B4A00EEC52A01EEC62ACD
:1027300090ED1C6A33EE035AD0ED151A32EE055AAD
:1027400034EE054A90ED145A27EE044A90ED1D7AB6
:1027500080ED160A80ED171A80ED182AC0ED190ACF
:1027600080ED1A2A80ED1B3A06EE454A07EE614AD3
:1027700080ED1C4A80ED1D6A90F878109BED0B0AE5
:1027800000295AD090ED251A90ED263A90ED1F4A77
:1027900090ED205AD0ED270A90ED216AD0ED281A4D
:1027A00090ED227A31EE012A30EE022A33EE022A2F
:1027B00090ED293A24EE022A90ED2A4A00EEC52A2D
:1027C00001EEC62A90ED2B6A33EE035AD0ED241A9F
:1027D00032EE055A34EE054A90ED235A27EE044AAC
:1027E00090ED2C7A80ED250A80ED261A80ED272ABF
:1027F000C0ED280A80ED292A80ED2A3A06EE454AE6
:1028000007EE614A80ED2B4A80ED2C6A26E080EDD0
:10281000160A80ED170A80ED180A80ED190A80ED7E
:102820001A0A80ED1B0A80ED1C0A80ED1D0A90F843
:1028300078109BED0B0A0029A4D180ED250A80EDCC
:10284000260A80ED270A80ED280A80ED290A80ED0E
:102850002A0A80ED2B0A80ED2C0A00BF08F1B4088B
:102860000C3608340AF13C0A09F10109B8F5077F72
:102870007FF4CAACE888B0F5FA6F36D8009841F614
:10288000742140F2B004C2F20001C2F20004C0EBB5
:10289000001001EB800005F13C01D1EC030A94ED3E
:1028A000040A90ED012AD0ED062A90ED0B3A13F0C0
:1028B000F5F824F0A5FC1FEDB32A05F13C00B0EEBD
:1028C000403A94ED040AD0EC030AF0EE422A13F0E9
:1028D00065F905F13C0084ED040AC0EC030A04B07C
:1028E000BDEC108B01B0BDE8F08F0020002403F098
:1028F000FBFA0078002878D041F62830C2F20000B8
:1029000090ED0DAA90ED1C9A90ED2B8A6878002826
:102910006DD040F6A06441F260165FEDCB2A4FF611
:10292000FF77C2F20004C2F2000696ED011A94EDA0
:102930000F4A96ED000A94ED0E3A96ED022A94EDB8
:10294000105A74EE410A79EE411A33EE407A3AEEAB
:10295000406A35EE425A38EE424A31EEE01A36EE1F
:10296000470A34EE452A21EE013A00EE003A02EE23
:10297000023AB4EEE23AF1EE10FA4ADD60EEA00A55
:1029800061EEA11A47EE070A46EE061A45EE050A61
:1029900044EE041A31EEE04A5FEDEA1A24EE284ACA
:1029A00084EE033A61EE030A20EE030A22EE031AD4
:1029B0001FF0E0FD1FEDF02A96ED003A96ED014A7A
:1029C00096ED025A84ED0EAA84ED0F9A84ED108ADA
:1029D00000EE023A00EE824A01EE025A86ED003A1B
:1029E00086ED014A86ED025A13E06C700BE040F66A
:1029F000A060C2F2000080ED0EAA80ED0F9A80ED7B
:102A0000108A0120687041F260164FF6FF77C2F21B
:102A10000006012003F068FA0078002872D041F621
:102A20002830C2F2000090ED3AAA90ED499A90ED5C
:102A3000588AA878012867D140F6A06496ED041A58
:102A400096ED030A96ED052ADFEDEA2AC2F20004AC
:102A500094ED124A94ED113A94ED135A79EE411A1D
:102A60003AEE406A74EE410A33EE407A35EE425A4D
:102A700038EE424A31EEE01A36EE470A34EE452A85
:102A800021EE013A00EE003A02EE023AB4EEE23AEA
:102A9000F1EE10FA44DD60EEA00A61EEA11A47EEF5
:102AA000070A46EE061A45EE050A44EE041A31EE10
:102AB000E04ADFEDD11A24EE284A84EE033A61EEB3
:102AC000030A20EE030A22EE031A1FF053FD9FEDC6
:102AD000CB2A96ED033A96ED044A96ED055A84ED1D
:102AE00011AA84ED129A84ED138A00EE023A00EEE8
:102AF000824A01EE025A86ED033A86ED044A86EDDB
:102B0000055A0DE000200AE040F6A060C2F2000085
:102B100080ED11AA80ED129A80ED138A0120A87031
:102B2000022003F0E1F90078002872D041F6283045
:102B3000C2F2000090ED67AA90ED769A90ED858A3A
:102B4000E878012867D140F6A06496ED071A96ED63
:102B5000060A96ED082ADFEDA72AC2F2000494EDDA
:102B6000154A94ED143A94ED165A79EE411A3AEE5C
:102B7000406A74EE410A33EE407A35EE425A38EE3E
:102B8000424A31EEE01A36EE470A34EE452A21EE8B
:102B9000013A00EE003A02EE023AB4EEE23AF1EE09
:102BA00010FA44DD60EEA00A61EEA11A47EE070AB2
:102BB00046EE061A45EE050A44EE041A31EEE04AE6
:102BC000DFED8D1A24EE284A84EE033A61EE030A03
:102BD00020EE030A22EE031A1FF0CCFC9FED872A99
:102BE00096ED063A96ED074A96ED085A84ED14AA3A
:102BF00084ED159A84ED168A00EE023A00EE824AC0
:102C000001EE025A86ED063A86ED074A86ED085A2D
:102C10000DE000200AE040F6A060C2F2000080ED66
:102C200014AA80ED159A80ED168A0120E870002024
:102C3000002503F059F904460078E0B19DF80C0036
:102C400041F67425C2F20005002800F0EF8095EDF2
:102C5000061A95ED010A95ED0B2A21EE018A00EE88
:102C6000008A02EE028AB5EEC08AF1EE10FA7DDA31
:102C70009FED630A87E040F6A060C2F200000562A3
:102C8000C56241F67425C2F20005CFE040F620632C
:102C90009FED5C0A9FED5C2AC2F2000393ED051ADA
:102CA000B8EEC11A21EE003AB4EEC23AF1EE10FAD3
:102CB00008DCB4EEC03AB0EE432AF1EE10FAB8BF29
:102CC000B0EE402A90ED063AB7EE084AB6EE005A4A
:102CD00093ED040A23EE046A9FED4C4AB7EE003AE6
:102CE00002EE056A83EE023A36EE405AB4EEC45A5A
:102CF000F1EE10FA08DC9FED464AB4EEC45AF1EE4C
:102D000010FAA8BFB0EE454A9FED425A40F6A067C0
:102D1000C2F2000722EE052A02EE040A91ED112A02
:102D200091ED124A83ED040A90ED135A90ED146A66
:102D300035EE422A36EE444A23EE022A23EE043AC6
:102D400022EE012A23EE011A87ED062A87ED071AE3
:102D5000D0E91376456D00205861C1E91176CD6444
:102D6000D2E90023C1E90023FEF732BEB0EE480AE3
:102D700025F0A3FFB4EEC00AF1EE10FA03D7B0EECF
:102D8000480A25F09AFF40F6A0609FED232AC2F280
:102D9000000090ED081A30EE020AB4EEC10AF1EE1E
:102DA00010FA10DD80ED080A9FED1C2A90ED0B1A39
:102DB00094ED043A30EE410A23EE022A02EE001AA4
:102DC00080ED0B1A32E09FED152A94ED043A30EEB7
:102DD000414A23EE022A90ED0B3A04EE021AB4EEB9
:102DE000C30A80ED081AF1EE10FA19DA80ED0B0A29
:102DF0001CE000BF0BD7233C0AD7A33CCDCC4C3DF5
:102E0000000000006F12833A6666663FCDCC4C3EF0
:102E1000CDCC4CBECDCCCC3D9A9919BF9A99193FD7
:102E200030EE430A00EE023A80ED0B3A012003F047
:102E30005BF804460078B8B19DF80D00002864D016
:102E400095ED151A95ED100A95ED1A2A21EE018AD5
:102E500000EE008A02EE028AB5EEC08AF1EE10FAA8
:102E60000ADA1FED190A14E040F6A0600021C2F250
:102E700000004162016348E0B0EE480A25F01DFF02
:102E8000B4EEC00AF1EE10FA03D7B0EE480A25F00E
:102E900014FF40F6A0601FED202AC2F2000090ED62
:102EA000091A30EE020AB4EEC10AF1EE10FA10DD92
:102EB00080ED090A1FED272A90ED0C1A94ED043AD3
:102EC00030EE410A23EE022A02EE001A80ED0C1ABF
:102ED0001BE01FED2E2A94ED043A30EE414A23EE1A
:102EE000022A90ED0C3A04EE021AB4EEC30A80ED09
:102EF000091AF1EE10FA02DA80ED0C0A05E030EE64
:102F0000430A00EE023A80ED0C3A022002F0ECFF98
:102F100004460078B8B19DF80E00002864D095ED05
:102F2000241A95ED1F0A95ED292A21EE018A00EE5B
:102F3000008A02EE028AB5EEC08AF1EE10FA0ADAD1
:102F40001FED4B0A18E040F6A0600021C2F200001D
:102F50008162416348E0B0EE480A25F0AEFEB4EE6F
:102F6000C00AF1EE10FA03D7B0EE480A25F0A5FE2C
:102F70001FED571A30EE010A40F6A060C2F20000C1
:102F800090ED0A1AB4EEC10AF1EE10FA10DD80EDF0
:102F90000A0A9FEDE62A90ED0D1A94ED043A30EE00
:102FA000410A23EE022A02EE001A80ED0D1A1BE000
:102FB0009FEDDE2A94ED043A30EE414A23EE022AD8
:102FC00090ED0D3A04EE021AB4EEC30A80ED0A1A2F
:102FD000F1EE10FA02DA80ED0D0A05E030EE430A58
:102FE00000EE023A80ED0D3A002002F07DFF0078FD
:102FF00018B39DF80C0000B340F6A0609FEDCC1A0A
:10300000C2F2000090ED0B0AB4EEC10AF1EE10FA24
:1030100013DD90ED081A9FEDC72AB4EEC21AF1EE47
:1030200010FA0ADA31EE400A9FEDC31AB4EEC10A73
:10303000F1EE10FA01DA002056E0012002F054FF10
:10304000007818B39DF80D0000B340F6A0609FED26
:10305000B81AC2F2000090ED0C0AB4EEC10AF1EE0B
:1030600010FA13DD90ED091A9FEDB22AB4EEC21AE0
:10307000F1EE10FA0ADA31EE400A9FEDAF1AB4EE23
:10308000C10AF1EE10FA01DA01202DE0022002F06F
:103090002BFF00789FEDA90A60B39DF80E0048B39E
:1030A00040F6A0629FEDA22AFF204FF0FF380021DA
:1030B000C2F2000292ED0D1AB4EEC21AF1EE10FA4D
:1030C0001CDD92ED0A2A9FED9B3AB4EEC32AF1EE85
:1030D00010FA13DA32EE411A9FED972AB4EEC21AB3
:1030E000F1EE10FA0ADA02209FED8D0A5FFA80F8FD
:1030F000012103E0FF204FF0FF38002140F2B00B28
:10310000C2F2000B9BED011A31EE001AB3EE0E0A6B
:10311000B4EEC01A8BED011AF1EE10FA06DCB5EE32
:10312000C01AF1EE10FA03DA9FED7F0A8BED010A67
:10313000002900F0EF8003A911F80810002900F021
:10314000E98002F0D1FE45F2304144F604524FF6D8
:10315000FF739FED74DAC2F20001C2F2000291F82F
:1031600000E04FF6FF71BEF1000F18BF0121147887
:1031700044F66872C2F20002167845F2CC12C2F22E
:10318000000292F800904FF6FF72B9F1000F18BFDD
:103190000123002E18BF0122002C18BF012790ED3B
:1031A000040A009820EE0DCA804577D045F23840D9
:1031B00040F6206C002CC2F20000C2F2000C008825
:1031C000029045F2D410C2F200000088019044F64B
:1031D0007070C2F20000B0F800A044F60C50C2F2C9
:1031E00000000088A0EB07052C4618BF96348742E4
:1031F0000CF1480798BF2C46A1CF002EDCF854C034
:1032000000EB8400AAEB02040097264618BF96360E
:10321000524598BF2646019FB9F1000F05EB860283
:10322000A7EB0304254618BF9635BB4298BF254639
:10323000009B029FBEF1000F03EB8503A7EB010586
:103240002C4618BF9634B94298BF2C4641F67425D7
:1032500093ED009A92ED00AA90ED00BA0CEB840178
:10326000C2F2000591ED008A00F0E6F8B0EE603A97
:10327000B0EE615AB0EE414AB0EE402AB0EE4B0AD1
:10328000F0EE4A0AB0EE491AF0EE481AF0EE432A80
:10329000B0EE443AF0EE453A12F05AFA40F62064A5
:1032A000C8EB0810C2F2000405EB800004F13C01F9
:1032B000D1EC030A9BED040A90ED012AD0ED062A19
:1032C00090ED0B3A12F0EAFB23F09AFF2CEE0D3A48
:1032D0002CEE000AB4EEC30AF1EE10FA08DCB1EEEF
:1032E000433AB4EEC30AF1EE10FAA8BFB0EE403A8A
:1032F0009FED0D2A04F13C00D0EC030A9BED040A7B
:10330000F0EE422A12F04AFC04F13C008BED040A74
:10331000C0EC030A04B0BDEC108B01B0BDE8F08F27
:103320006F12833ACDCC4C3E000000009A99193FB1
:103330009A9999BE9A99993E0AD7233C6F1203BA7B
:10334000022806D9DFED090AB0EE601AB0EE600A75
:10335000704743F2B06100EB8000C2F2000101EB64
:10336000C000283090EC030A704700BF0000000046
:10337000022806D9DFED090AB0EE601AB0EE600A45
:10338000704743F2B06100EB8000C2F2000101EB34
:10339000C000343090EC030A704700BF000000000A
:1033A00043F2B060C2F2000090EDCE0A7047000018
:1033B00043F2B060C2F2000090EDCF0A7047000007
:1033C00043F2B06100EB8000C2F2000101EB00109B
:1033D00000F5CC707047000043F2B06100EB800054
:1033E000C2F2000101EB001000F5C8707047000048
:1033F00043F2B06100EB8000C2F2000101EB00106B
:1034000000F5DC7070470000022806D9DFED090ADC
:10341000B0EE601AB0EE600A704743F2B06100EBA4
:103420008000C2F2000101EBC000A03090EC030A62
:10343000704700BF0000000043F2B060C2F200001D
:1034400000F5347090EC040A70470000022806D999
:10345000DFED090AB0EE601AB0EE600A704743F281
:10346000B06100EB8000C2F2000101EBC00000F58A
:103470008C7090EC030A704700000000022806D907
:10348000DFED090AB0EE601AB0EE600A704743F251
:10349000B06100EB8000C2F2000101EBC00000F55A
:1034A000927090EC030A70470000000043F2B06095
:1034B000C2F2000090F82E039FED041A00EE100AED
:1034C000B8EE400A20EE010A704700BF0AD7233C3D
:1034D00043F2B060C2F2000090F82D039FED041A91
:1034E00000EE100AB8EE400A20EE010A704700BF55
:1034F0000AD7233C43F2B060C2F2000090F82C03DC
:103500007047000043F2B060C2F2000090EDCC0AB8
:10351000704700009FED0A0A02280FD84A1E032AAE
:1035200088BF704700EB800001EB400043F2B061C0
:10353000C2F2000101EB800090EDD20A704700BF9B
:10354000000000009FED0A0A02280FD84A1E032A35
:1035500088BF704700EB800001EB400043F2B06190
:10356000C2F2000101EB800090EDD60A704700BF67
:1035700000000000022884BF9FED060A704743F256
:10358000B06100EB8000C2F2000101EBC00090EDE1
:10359000D20A70470000000043F2B060C2F200009F
:1035A00090F8200370470000022884BF0020704775
:1035B00043F2B061C2F2000101EB8000D0F8F407E1
:1035C00070470000022888BF704743F2B06100EBEB
:1035D0008000C2F2000101EBC000283080EC030A39
:1035E00070470000022888BF704743F2B06100EBCB
:1035F0008000C2F2000101EBC000343080EC030A0D
:103600007047000043F2B060C2F2000080EDCE0AC5
:103610007047000043F2B060C2F2000080EDCF0AB4
:1036200070470000B0B543F2B06200EB8000C2F218
:1036300000024C6901F1080502EB0010D1E900CE4F
:103640002CCDC0F8AC4100F5D0742CC4C0E966CED6
:10365000D1E90612C0E96C12B0BD000043F2B062BD
:1036600000EB8000C2F2000202EB00100A68496819
:10367000C0E9642170470000B0B543F2B06200EBCE
:103680008000C2F200024C6901F1080502EB001053
:10369000D1E900CE2CCDC0F8CC4100F5E0742CC4AB
:1036A000C0E96ECED1E90612C0E97412B0BD0000C7
:1036B000022888BF704743F2B06100EB8000C2F27D
:1036C000000101EBC000A03080EC030A704700004D
:1036D000022888BF704743F2B06100EB8000C2F25D
:1036E000000101EBC000AC3080EC030A7047000021
:1036F00043F2B060C2F2000000F5347080EC040ABE
:1037000070470000022888BF704743F2B06100EBA9
:103710008000C2F2000101EBC00000F58C7080EC6B
:10372000030A7047022888BF704743F2B06100EB7C
:103730008000C2F2000101EBC00000F5927080EC45
:10374000030A70479FED071A43F2B06120EE010AA9
:10375000BDEEC00A10EE100AC2F2000181F82E037D
:10376000704700BF0000C8429FED071A43F2B061E6
:1037700020EE010ABDEEC00A10EE100AC2F20001EE
:1037800081F82D03704700BF0000C84243F2B061CA
:10379000C2F2000181F82C037047000043F2B060D0
:1037A000C2F2000080EDCC0A7047000002280FD85A
:1037B0004A1E032A88BF704700EB800001EB4000DF
:1037C00043F2B061C2F2000101EB800080EDD20A49
:1037D0007047000002280FD84A1E032A88BF70478E
:1037E00000EB800001EB400043F2B061C2F2000147
:1037F00001EB800080EDD60A70470000022888BFE8
:10380000704743F2B06100EB8000C2F2000101EBAF
:10381000C00080EDD20A704743F2B061C2F20001ED
:1038200081F8200370470000022884BF0020704701
:1038300080B500EB8000282101EBC00143F2B060AD
:10384000C2F2000008440C2280EC030A1FF0F8FBCF
:10385000B0FA80F0400980BD022884BF0020704784
:1038600080B500EB8000342101EBC00143F2B06071
:10387000C2F2000008440C2280EC030A1FF0E0FBB7
:10388000B0FA80F0400980BDF0B581B000EB800057
:103890004FF4CC7243F2B06C02EB0012C2F2000C97
:1038A0004B690CEB020091E8F0404361031D4CF8BA
:1038B000024083E8E040D1E90613C0E9061311464F
:1038C00020221FF0BDFBB0FA80F0400901B0F0BD2E
:1038D00080B500EB80004FF4C87243F2B06C02EB8D
:1038E0000012C2F2000C0B6849680CEB02004CF8A5
:1038F00002304160114608221FF0A2FBB0FA80F0AE
:10390000400980BDF0B581B000EB80004FF4DC725F
:1039100043F2B06C02EB0012C2F2000C4B690CEBEC
:10392000020091E8F0404361031D4CF8024083E837
:10393000E040D1E90613C0E90613114620221FF02A
:103940007FFBB0FA80F0400901B0F0BD022884BFCF
:103950000020704780B500EB8000A02101EBC00182
:1039600043F2B060C2F2000008440C2280EC030A6B
:103970001FF066FBB0FA80F0400980BD80B543F2CD
:10398000B061C2F2000101F5347001F5347181ECCF
:10399000040A4FF4347110221FF052FBB0FA80F089
:1039A000400980BD022884BF0020704780B500EB2D
:1039B00080004FF48C7101EBC00143F2B060C2F2A1
:1039C000000008440C2280EC030A1FF039FBB0FA17
:1039D00080F0400980BD0000022884BF00207047AD
:1039E00080B500EB80004FF4927101EBC00143F20F
:1039F000B060C2F2000008440C2280EC030A1FF001
:103A00001FFBB0FA80F0400980BD000080B5D0E90E
:103A10000012806843F2B063C2F20003C3F8F417E7
:103A2000C3F8F827C3F8FC0703F2F47040F2F4710E
:103A30000C221FF005FBB0FA80F0400980BD0000A9
:103A40002DE9F043CBB0D1F80C9080465FFA89F4B1
:103A500020460D460BF010F8064630B10BF006F884
:103A600058B10EF055F8044608E020460EF056F81E
:103A700006460AF0FBFF0028F3D10024404617F069
:103A80004FFB07460068F0B1B5F807000A21ADF812
:103A90001C0000208DF816408DF813004D2002AC5C
:103AA000ADF814100696ADF811008F262046414659
:103AB0000A220A238DF8179000961BF099FD3868AA
:103AC00021461CF00BFD4BB0BDE8F08380B584B0FF
:103AD000C8680A694969CDE9010201A80391FFF7A5
:103AE00095FF04B080BD000010B50C4617F0EEFB4A
:103AF000012818D12069B2EE041A00EE100AB4EEC3
:103B0000410AF1EE10FA1CDBB3EE031AB4EE410ADF
:103B1000F1EE10FA15DCBDEEC00A10EE100ABDE899
:103B2000104013F0F9BA0A38092888BF10BD20697F
:103B3000B7EE000A01EE100AB4EE401AF1EE10FAE8
:103B4000E9D010BD70B5CAB00E46054617F0E8FAC8
:103B5000044602F0E3F918B3BBEE0E0A11F050FD73
:103B60002068E8B3B6F80700152104910021ADF8EC
:103B700018004D2001AE05918DF80F10ADF80D0025
:103B80004FF08F0C304629460A220A23CDF800C098
:103B90001BF02EFD206831461CF0A0FC4AB070BD21
:103BA0002068E8B1B6F807001521C0F202010491BF
:103BB0000021ADF818004D2001AE05918DF80F10D1
:103BC000ADF80D004FF08F0C304629460A220A232B
:103BD000CDF800C01BF00CFD206831461CF07EFCC7
:103BE0004AB070BDF0B5CBB04F6A0E46054617F02F
:103BF00097FA044602F092F928B39FED230A01EEEA
:103C0000107A21EE000A11F0E1FA2068C8B3B6F884
:103C10000700162105910021ADF81C004D2002AED1
:103C200006918DF81310ADF811008F273046294604
:103C30000A220A2300971BF0DBFC206831461CF0A7
:103C40004DFC4BB0F0BD2068D8B1B6F80700162186
:103C5000C0F2020105910021ADF81C004D2002AE1A
:103C600006918DF81310ADF811008F2730462946C4
:103C70000A220A2300971BF0BBFC206831461CF087
:103C80002DFC4BB0F0BD00BF0000C84270470000E3
:103C900070B5CAB0054617F043FA04460068E0B1B3
:103CA000C820C0F264000490C820ADF814000020C1
:103CB0008DF80F004FF4967001AEADF80D004FF087
:103CC000D90C3046294616221623CDF800C01BF029
:103CD0008FFC206831461CF001FC4AB070BD00002A
:103CE000F0B5CBB0044617F01BFA05464FF403506D
:103CF00002AE0027059006F130002A210697CDE993
:103D00000777CDE90977CDE90B770D97FCF71BFE17
:103D100094208DF81370ADF81100B227304621467B
:103D20003C224E2300971BF063FC286831461CF0B0
:103D3000D5FB4BB0F0BD00002DE9F04FADF51B7D7C
:103D400089A80130039024A809301D904DF2A87075
:103D5000C0F20200008840F6F845C2F200050DF1FD
:103D6000860C00261C900CE01F9840F6F845169E25
:103D7000C007C2F2000540F0F9830136042E00F0BE
:103D8000F58306EB460405EB84008268002AF4D034
:103D900060460A219047C0B20028159000F0E283E7
:103DA00045F69C20C2F200004FF4927106FB010917
:103DB00045F62C70C2F2000000EBC40A09F215109F
:103DC000189009F58A70149009F104001A900AF10C
:103DD0000D0013900AF11000119009F109001B90D9
:103DE0000AF11400079009F10200109009F58B7098
:103DF000099009F21D10069009F21710059009F1BB
:103E000007000C9009F108000E900AF104001790C9
:103E100009F10C000D900AF10C00199009F106004F
:103E2000129009F105000F900AF1020020900AF1AA
:103E300005000B900AF108000A900AF10A00159C8F
:103E400016960AF1030B09F10303089000260020DF
:103E50004FF0000E0DF1860C1F901E9307E000BF7F
:103E600001201F900136F0B284427FF67DAFF1B29F
:103E70009BF800001CF801800F284FF000018AF821
:103E8000001000F2A9810227DFE810F010001000F6
:103E90002700430055006A007F009400A900C50078
:103EA000DC00F700180175017B019C01B8F1FE0FE1
:103EB0004FF0000700F0A281B8F1FD0F40F0FC8246
:103EC000199D02208BF800002878109A0027FD2108
:103ED0001F70117000F0FE009BE1B9F80000179907
:103EE00083F8008081F800E088EA000181EA01118E
:103EF000C9B20A0242EA10200A0982EAC101199AEB
:103F000048401278A9F80000D10740F088810320CA
:103F1000A6E11A98B8F1020F80F80080C0F08881FD
:103F20002099002708788AF8007001300870012075
:103F30008BF80000C0E2B9F800000F9981F800800A
:103F400088EA000181EA0111C9B20A0242EA10209E
:103F50000A0982EAC1014840A9F8000005207FE172
:103F6000B9F80000129981F8008088EA000181EA1E
:103F70000111C9B20A0242EA10200A0982EAC1010B
:103F80004840A9F8000006206AE1B9F800000C9941
:103F900081F8008088EA000181EA0111C9B20A02B1
:103FA00042EA10200A0982EAC1014840A9F800004B
:103FB000072055E1B9F800000E9981F8008088EAE1
:103FC000000181EA0111C9B20A0242EA10200A097D
:103FD00082EAC1014840A9F80000082040E11B998D
:103FE000B9F8000081F802E0A1F8008088EA000139
:103FF00081EA0111C9B20A0242EA10200A0982EAE2
:10400000C101199A48401278A9F80000D10740F080
:104010002181092024E11B9AB9F80010108840EA98
:104020000820108088EA010080EA0010C0B2020275
:1040300042EA1121020982EAC0004840A9F80000C2
:104040000A200DE11B9AB9F80010907840EA0800A8
:10405000907088EA010080EA0010C0B2020242EAD1
:104060001121020982EAC0001A784840002AA9F802
:10407000000000F0F3800B20F2E0179D2878411C2F
:10408000CAB22970B9F800100D9D05F8008088EAC1
:10409000010080EA0010C0B21D46030243EA11216C
:1040A000030983EAC0002B7848409A42A9F800002F
:1040B0005FD10C208BF800000027FCE11B99A8229F
:1040C0008878098841EA0040002100BF914213D25C
:1040D0008B1801335F084EF2F01507EB4704C0F26E
:1040E000020555F82440844298BF39464FF0FF340A
:1040F00088BF04EB5302E9D14EF2F01401EB410208
:10410000C0F2020454F82230002183424FF0000034
:1041100003BF04EB8200027901210022B9F80030CC
:10412000159C5A4082EA0212D2B2170247EA1323C0
:10413000170987EAC2025A40A9F80020D2B2904576
:104140004FF00E0208BF0D22002914998BF80020B1
:1041500081F800800DD01799427909788A4208D9F0
:104160000D980844511AFCF7CCFB0DF1860C4FF06A
:10417000000E00279FE199F801000227404508BF83
:1041800001271A988AF800700078C007189880F8FC
:10419000008023D111980068002800F07081026B24
:1041A0005AB11B998878098841EA004150469047E6
:1041B0009AF80070002840F06281022F40F0ED80F4
:1041C00002275CE1139A1078A9EB0001013881F80D
:1041D0002381010610704BD000276DE10F20139949
:1041E0008BF80000022F4FF00D0008703CD11878BA
:1041F0008DF89300209880F800E0A9E1199D022035
:104200008BF800002878109AFE2140F001001F7002
:10421000117028704FF6FF70A9F800004CE11A9851
:10422000002707700F98077005208BF8000043E106
:10423000B9F8000088EA000181EA0111C9B20A0256
:1042400042EA10200A0982EAC1014840A9F80000A8
:10425000042005E0187800287FF40DAF0C2000BF83
:104260008BF80000002727E100278AF8007023E17F
:1042700011980168002900F0FF800798CDE96FEEE2
:1042800000686FAD04904EF26760C6F60920719029
:104290004AF68560CBF6673072904FF27230C3F603
:1042A0006E4073904FF23A50CAF24F50749045F2FC
:1042B0007F20C5F20E10759046F68C00C9F60530C9
:1042C00076904DF6AB10C1F6837077904CF619508E
:1042D000C5F6E030789002911031284620221CF07B
:1042E0003FFC1E981099007800F10A0228461CF045
:1042F00037FC1499284602221CF032FC0999284602
:1043000007221CF02DFC6F9C3720A0EBD40000F09E
:104310003F0589A82F1880208DF824020398472193
:10432000FCF7EFFA709920BAC7F8050008BAC7F889
:10433000010005F109026FA8049D89A91CF010FC79
:104340009DF8C5119DF8C4018DF8B8119DF8CA11EA
:104350009DF8C7218DF8B9019DF8CB019DF8C631B4
:104360008DF8BB1106998DF8B6218DF8BA010DF5BF
:10437000DB7006228DF8B731FCF720FA78B111987E
:104380000068026BDAB31B998878098841EA00411A
:1043900050469047159C00286ED103276DE0002DF4
:1043A000EDD00998037805988188D0F800E0019154
:1043B000298859B30C98002290F800C0A81C04E08A
:1043C0000132914200F109001CD04478A445F7D194
:1043D0000E9C87782478BC42F2D10478A342EFD1B6
:1043E00097B2B9420FD0B0F80710D0F80300019B84
:1043F000B0EB0E009BB271EB0300C0D225E0159C20
:1044000003273AE00A460F29B9D800E000220198B4
:104410001FFA80FC48F68050C0F25B001EEB0007DC
:1044200002984CF1000CD0E902403C1B7CEB0000F0
:10443000A5D30C9802EBC20700782F44F8700E98B1
:104440000078BB703871481C288002EBC200059AC6
:1044500028449188029BA0F809101168C0F8051043
:10446000D3E902120198B1EB0E0180B272EB0001A8
:1044700038BFC3E902E0159C01278AF800700120CB
:104480008BF8000024A849464FF49272FCF7C2F959
:10449000012F50D10A9B1299188809780B9A4FF076
:1044A000000E117010B90899A1F800E00130012741
:1044B0000DF1860C18801E9B18788DF893002098BB
:1044C00080F800E007F0FE00022815D120990120B5
:1044D000B8F1FD0F08708AF800E08BF800007FF457
:1044E000C1AC02208BF800004FF6FF7083F800E0AB
:1044F000A9F80000B6E400BF002F3FF4B3AC1D994B
:104500008878098841EA00401C998842BFF4A8AC29
:104510004DF22031C0F2020151F82020002A3FF470
:104520009FAC169824A9C0B290471E9B0DF1860C33
:104530004FF0000E94E41E9B022F18784FF0000EEF
:104540008DF8930020980DF1860C80F800E0B9D129
:10455000149818990078097840EA0120ADF8900085
:10456000B4E700BF0DF1860CFFF707BC0DF51B7D0E
:10457000BDE8F08F10B540F6F844C2F20004E068E0
:1045800020B1804700281CBF012010BDA06920B1C8
:10459000804700281CBF012010BD606A08B1804719
:1045A00018B9206B18B1804708B1012010BD002058
:1045B00010BD00002DE9F04FCBB040F6F846C2F236
:1045C0000006308840F29408013081B26329C2F2BB
:1045D0000008308040F29480716802AA002002F145
:1045E0000905308001B3B8F802104FF6FF720029B8
:1045F00018BF41F00101059202228DF81A1040F215
:10460000033102ACADF81820ADF81B10A87028805B
:104610003227204600210922092300971AF0FCFBCB
:10462000706821461BF0DAFE306908B3B8F8020062
:104630004FF6FF71002818BF40F001008DF81A00F6
:1046400040F2033005910221ADF81B00002002ACBE
:10465000ADF81810A87028803227204601210922C1
:10466000092300971AF0D8FB306921461BF0B6FEEB
:10467000F06908B3B8F802004FF6FF71002818BFC0
:1046800040F001008DF81A0040F20330059102213C
:10469000ADF81B00002002ACADF81810A8702880FF
:1046A0003227204602210922092300971AF0B4FB81
:1046B000F06921461BF092FEB06A08B3B8F8020018
:1046C0004FF6FF71002818BF40F001008DF81A0066
:1046D00040F2033005910221ADF81B00002002AC2E
:1046E000ADF81810A870288032272046032109222F
:1046F000092300971AF090FBB06A21461BF06EFE6A
:1047000006F1040B43F250164DF2AC7A0027C2F2C8
:104710000006C0F2020A02AC00254FF0000807E0D4
:10472000283508F10108A02D0BF10C0B00F02581B4
:10473000DBF800000028F3D0705BD8B17119CA789B
:104740008B78013227463446D6B29E4226463C46F6
:104750004FF00007CA700DD35AF82020CF705FFACF
:1047600088F02146904728B1DBF8000021461BF075
:1047700035FE00BF06EB0509B9F80400C0B199F891
:10478000071099F806200131CBB2934289F807103F
:104790000ED35AF820205FFA88F0214689F8077076
:1047A000904728B1DBF8000021461BF017FE00BF40
:1047B000B9F80800C0B199F80B1099F80A20013136
:1047C000CBB2934289F80B100ED35AF820205FFA2F
:1047D00088F0214689F80B70904728B1DBF800007B
:1047E00021461BF0FBFD00BFB9F80C00C0B199F8E1
:1047F0000F1099F80E200131CBB2934289F80F10B7
:104800000ED35AF820205FFA88F0214689F80F70FD
:10481000904728B1DBF8000021461BF0DFFD00BF08
:10482000B9F81000C0B199F8131099F812200131AD
:10483000CBB2934289F813100ED35AF820205FFAB6
:1048400088F0214689F81370904728B1DBF8000002
:1048500021461BF0C3FD00BFB9F81400C0B199F8A0
:10486000171099F816200131CBB2934289F817102E
:104870000ED35AF820205FFA88F0214689F8177085
:10488000904728B1DBF8000021461BF0A7FD00BFD0
:10489000B9F81800C0B199F81B1099F81A20013125
:1048A000CBB2934289F81B100ED35AF820205FFA3E
:1048B00088F0214689F81B70904728B1DBF800008A
:1048C00021461BF08BFD00BFB9F81C00C0B199F860
:1048D0001F1099F81E200131CBB2934289F81F10A6
:1048E0000ED35AF820205FFA88F0214689F81F700D
:1048F000904728B1DBF8000021461BF06FFD00BF98
:10490000B9F82000C0B199F8231099F8222001319C
:10491000CBB2934289F823100ED35AF820205FFAC5
:1049200088F0214689F82370904728B1DBF8000011
:1049300021461BF053FD00BFB9F8240000283FF4C6
:10494000EFAE99F8271099F826200131CBB29342A7
:1049500089F82710FFF4E4AE5AF820205FFA88F0B7
:10496000214689F82770904700283FF4D9AEDBF83C
:10497000000021461BF032FDD2E640F2940AC2F25A
:10498000000ABAF90000002800F1F2804DF6F0713B
:1049900040F6F84BC0F20201C2F2000BB1F80090F1
:1049A000DBF804104DF6384804F1140604F109054B
:1049B000C0F2020891B380B2C0EBC00008EB8004E3
:1049C000A0698047BAF90000D4F80520C0EBC00107
:1049D000ADF81A00D4F80100D4F80930D4F80D402D
:1049E00018F8211030600020F460A870162002AC86
:1049F0007260B3608DF82C102880DC2720460021DF
:104A0000192219238DED050AADF8189000971AF0B8
:104A100003FADBF8040021461BF0E0FCDBF8100091
:104A200098B3BAF90000C0EBC00008EB8004A0699D
:104A30008047BAF90000D4F80520C0EBC001ADF8FA
:104A40001A00D4F8010018F82110D4F80930D4F86D
:104A50000D7030600020A870162002AC7260B36048
:104A6000F7608DF82C102880DC27204601211922C0
:104A700019238DED050AADF8189000971AF0CCF9BE
:104A8000DBF8100021461BF0A9FCDBF81C0098B3F2
:104A9000BAF90000C0EBC00008EB8004A0698047B1
:104AA000BAF90000D4F80520C0EBC001ADF81A0037
:104AB000D4F8010018F82110D4F80930D4F80D709A
:104AC00030600020A870162002AC7260B360F760FE
:104AD0008DF82C102880DC2720460221192219236A
:104AE0008DED050AADF8189000971AF095F9DBF8EE
:104AF0001C0021461BF072FCDBF8280098B3BAF9C1
:104B00000000C0EBC00008EB8004A0698047BAF940
:104B10000000D4F80520C0EBC001ADF81A00D4F8AD
:104B2000010018F82110D4F80930D4F80D70306065
:104B30000020A870162002AC7260B360F7608DF898
:104B40002C102880DC2720460321192219238DED03
:104B5000050AADF8189000971AF05EF9DBF8280006
:104B600021461BF03BFCBAF800000138AAF800000F
:104B70004BB0BDE8F08F000080B54FF48061FBF7CB
:104B8000C0FE80BD2DE9F04F81B0062A00F2A4805E
:104B90004FF0000C11F80C70002F00F0998001EB21
:104BA0000C077E7886B3BE78AEB3FE78D6B33E7976
:104BB000002E3ED07E79002E42D0BE79002E46D007
:104BC000FE79002E4AD03E7A002E4ED07E7A002EFC
:104BD00052D0BE7A002E56D0FE7A002E5AD03E7B9E
:104BE000002E5ED07E7B002E62D0BE7B002E66D073
:104BF000FE7B002E6AD03F7C002F71D00CF1110C8F
:104C0000BCF1FF0FC6D167E00CF1010C03EBCC0740
:104C1000802F61D86AE00CF1020C03EBCC07802FE7
:104C20005AD863E00CF1030C03EBCC07802F53D868
:104C30005CE00CF1040C03EBCC07802F4CD855E062
:104C40000CF1050C03EBCC07802F45D84EE00CF19E
:104C5000060C03EBCC07802F3ED847E00CF1070C85
:104C600003EBCC07802F37D840E00CF1080C03EBA6
:104C7000CC07802F30D839E00CF1090C03EBCC07BE
:104C8000802F29D832E00CF10A0C03EBCC07802FDF
:104C900022D82BE00CF10B0C03EBCC07802F1BD898
:104CA00024E00CF10C0C03EBCC07802F14D81DE092
:104CB0000CF10D0C03EBCC07802F0DD816E00CF196
:104CC0000E0C03EBCC07802F06D80FE00CF10F0C75
:104CD00003EBCC07802F09D9002001B0BDE8F08F8D
:104CE0000CF1100C03EBCC07802FF5D85FEA0C67B2
:104CF0000FD0ACF101074BF6F16E0CF0030A032F55
:104D0000C0F2020E09D24FF00008BAF1000F40F0D5
:104D10007F80012001B0BDE8F08F00EBC2141C447D
:104D2000AAEB0C0CA4F1200501F101096FF00306B8
:104D3000CDF800A009EB060A9AF803700436203F6C
:104D4000FCB25A2C88BF0027FCB227015EF807701E
:104D50000EEB041445F8207F6768D4F808B0E468C7
:104D60006F60C5F88440C5F880B09AF80440203CD4
:104D7000E7B25A2F88BF0024E4B20EEB04172401D7
:104D80005EF804B07C68D7F80880FF68EC60C5F86E
:104D900008B0C5F88880C5F88C709AF80540203CAA
:104DA000E7B25A2F88BF0024E4B20EEB04172401A7
:104DB0005EF804807C68D7F808B0FF686C61C5F8BD
:104DC0001080C5F890B0C5F894709AF80640203C61
:104DD000E7B25A2F88BF0024E4B227015EF80770BB
:104DE0000EEB0414AF616768D4F80880E468EF61E3
:104DF0000CEB06070437C5F89880C5F89C4099D19C
:104E0000DDF800A006F10408BAF1000F3FF481AF0D
:104E100011F8086000EBC219203EF4B25A2C88BF8A
:104E20000026F6B237015EF8077003EBC8040EEBFC
:104E3000061602F1010C49F80470776809EB0405C5
:104E4000B268F66800EBCC106F600719BAF1010F79
:104E500002517E603FF45DAF08F101028F5C03EB0D
:104E6000C202203FFEB25A2E88BF0027FFB23D018A
:104E70005EF805500EEB071749F802507D6809EB04
:104E80000206BC68FF6875608618BAF1020F84508C
:104E900077603FF43EAF08F10202895C03EBC20287
:104EA0002039CFB25A2F88BF0021C9B20F015EF856
:104EB00007700EEB011149F802704F6809EB02030D
:104EC0008E68C9685F60831886505960012001B000
:104ED000BDE8F08F2DE9F047072A00F2C6804FF0B9
:104EE000000C11F80C70002F00F0B98001EB0C06DB
:104EF0007778A7B3B778DFB3F778002F41D0377949
:104F0000002F47D07779002F4DD0B779002F53D09D
:104F1000F779002F59D0377A002F5FD0777A002F9A
:104F200065D0B77A002F6BD0F77A002F71D0377B1E
:104F3000002F77D0777B002F7DD0B77B002F00F03C
:104F40008380F77B002F00F08880377C002F00F0F3
:104F50008F800CF1110CBCF1FF0FC2D185E00CF178
:104F6000010C0CEB4C0703EB4707802F7DD887E043
:104F70000CF1020C0CEB4C0703EB4707802F74D8A5
:104F80007EE00CF1030C0CEB4C0703EB4707802F82
:104F90006BD875E00CF1040C0CEB4C0703EB4707E6
:104FA000802F62D86CE00CF1050C0CEB4C0703EB86
:104FB0004707802F59D863E00CF1060C0CEB4C0727
:104FC00003EB4707802F50D85AE00CF1070C0CEB8D
:104FD0004C0703EB4707802F47D851E00CF1080C32
:104FE0000CEB4C0703EB4707802F3ED848E00CF151
:104FF000090C0CEB4C0703EB4707802F35D83FE03B
:105000000CF10A0C0CEB4C0703EB4707802F2CD854
:1050100036E00CF10B0C0CEB4C0703EB4707802F31
:1050200023D82DE00CF10C0C0CEB4C0703EB4707DD
:10503000802F1AD824E00CF10D0C0CEB4C0703EB7D
:105040004707802F11D81BE00CF10E0C0CEB4C071E
:1050500003EB4707802F08D812E00CF10F0C0CEB84
:105060004C0703EB4707802F0AD90020BDE8F087E3
:105070000CF1100C0CEB4C0703EB4707802FF4D816
:105080005FEA0C6700F0A580ACF101074CF2E14E3D
:105090000CF00308032FC0F2020E04D20027B8F16F
:1050A000000F61D195E000EBC2141C44A8EB0C0C7E
:1050B00001F10109A4F10C076FF0030609EB060AE0
:1050C0009AF803500436203DECB25A2C88BF0025D4
:1050D000ECB2640054FA85F40EEB44055EF814401B
:1050E000AD88FC603D829AF80440203CE5B25A2D20
:1050F00088BF0024E5B26D0055FA84F40EEB440538
:105100005EF81440AD88C7F81240FD829AF8054059
:10511000203CE5B25A2D88BF0024E5B26D0055FA57
:1051200084F40EEB44055EF81440AD8847F8184F40
:10513000BD809AF80640203CE5B25A2D88BF002475
:10514000E5B26D0055FA84F45EF814500EEB440499
:10515000C7F80650A4880CEB060504357C81ADD158
:10516000371DB8F1000F34D0CE5D00EBC210203EE9
:10517000F5B25A2D88BF0026F4B2640054FA86F6C0
:1051800007EB47055EF816400EEB460603EB4505B8
:10519000B6884219B8F1010F4451968019D07A1C93
:1051A0008E5C02EB4202203EF5B25A2D88BF0026EB
:1051B000F4B2640054FA86F65EF8164003EB42023D
:1051C0000EEB460685188450B288B8F1020FAA800B
:1051D00002D10120BDE8F087BA1C895C02EB4202D3
:1051E0002039CFB25A2F88BF0021CFB27F0057FAA3
:1051F00081F10EEB41075EF8111003EB4202BF880C
:105200008318815001209F80BDE8F08709B9402AAA
:1052100001D900207047B0B500EBC1104CF2047505
:105220008418C0F20205204629464022FBF7F2FA14
:1052300004F1800005F140014022FBF7EBFA04F590
:10524000807005F180014022FBF7E4FA04F5C0709C
:1052500005F1C0014022FBF7DDFA04F5007005F509
:1052600080714022FBF7D6FA04F5207005F5A07195
:105270004022FBF7CFFA04F5407005F5C0714022DB
:10528000FBF7C8FA04F5607005F5E0714022FBF702
:10529000C1FA0120B0BD00008446072A4FF000008B
:1052A00098BF7A2B00D970470CEBC210184449B153
:1052B0004CF27001818040F20461C1F6034101604B
:1052C0000120704744F22421818042F24241C1F61C
:1052D00018010160012070472DE9F0412DED048B8C
:1052E000044610EE900AB0EE608AB0EE409A25F0C7
:1052F000A5FD9FED2B0B054653EC102B0E4625F01C
:10530000E4FD002844D119EE100A25F097FD9FED29
:10531000260B0746884653EC102B2846314625F0CD
:1053200097FA3A46434625F0C9FD88BB89EE080A3C
:105330009FED1F1A81EE000A23F0DCFC9FED1D1A81
:1053400020EE002A20EE010AB7EE001A30EE013AF4
:1053500032EE033A81EE033ABFEE005A32EE055ABE
:1053600031EE400A35EE055A32EE000A012022EEF7
:10537000034A25EE035A20EE030A84ED014A84ED28
:10538000025A84ED030A2070BDEC048BBDE8F08165
:1053900000202070BDEC048BBDE8F08100BF00BF91
:1053A0002D431CEBE2361A3FCDCCCCCCCCCC00400C
:1053B000DB0F4940F304B53F2DE9F0412DED068B9D
:1053C000044610EE900AB0EE608AB0EE409A25F0E6
:1053D00035FD9FED410B054653EC102B0E4625F095
:1053E00074FD00286FD119EE100A25F027FD9FEDFE
:1053F0003C0B0746884653EC102B2846314625F0D7
:1054000027FA3A46434625F067FD00285BD089EE2F
:10541000080A9FED351A81EE008AB0EE480A23F0A3
:1054200069FC9FED321A20EE002A20EE010AB7EE49
:10543000009A30EE091A32EE011A89EE011ABFEE17
:1054400000AA39EE400A32EE0A4A32EE000A34EE81
:10545000044A0120207020EE010A22EE013A24EED7
:10546000014A84ED030AB0EE480A84ED013A84ED66
:10547000024A23F03FFC9FED1E1A20EE002A20EE88
:10548000010A30EE091A32EE011A89EE011A32EEE3
:105490000A4A39EE400A34EE044A32EE000A207815
:1054A000002822EE013A24EE014A20EE010A84EDA2
:1054B000043A84ED054A84ED060A18BF0120BDECCC
:1054C000068BBDE8F08100202070BDEC068BBDE8A6
:1054D000F08100BF00BF00BF2D431CEBE2361A3F36
:1054E000CDCCCCCCCCCC0040DB0F49405E83EC3F34
:1054F00015EF433F90F87010002900F0998090ED6F
:105500000C3A90ED0D5A33EE034A34EE004A90ED1A
:105510000E2A35EE044A90ED005A90ED016A90EDA6
:105520000F1A90ED027A80ED0F2A25EE044A22EE42
:10553000062A80ED0D3A90ED103A34EE422A21EE23
:10554000071A32EE411A33EE034A90ED115A31EE4A
:10555000044A90ED122A35EE044A90ED045AD0ED3B
:10556000030A80ED0C0A90ED130A80ED132A22EE57
:10557000052A90ED055A20EE844A20EE050A90EDAA
:10558000145A34EE422A32EE400A35EE057AD0ED56
:10559000150A80ED0E1A80ED113A80ED101A90ED8B
:1055A000161A90ED063A90ED074A30EE077A90ED24
:1055B000172A90ED086A30EE877A80ED171A23EEED
:1055C000073A21EE041A80ED155A90ED185A33EE81
:1055D000411A22EE062A31EE421A35EE057AD0ED56
:1055E000190A80ED120A80ED140A90ED1A0A90ED66
:1055F000093A90ED0A4A31EE077A90ED1B2A90EDB8
:105600000B6A30EE877A80ED1B0A23EE073A20EE14
:10561000040A33EE400A22EE062A30EE420A80EDFA
:10562000161A80ED1A0A80ED195A80ED181A704783
:1056300080ED0C0A80ED0D0A80ED0E0A80ED0F0A58
:1056400080ED100A80ED110A80ED120A80ED130A38
:1056500080ED140A80ED150A80ED160A80ED170A18
:1056600080ED180A80ED190A80ED1A0A80ED1B0AF8
:1056700070470000000000002DE9F0412DED068B81
:10568000044610EE900AB0EE608AB0EE409A25F023
:10569000D5FB9FED670B054653EC102B0E4625F00E
:1056A00014FC002840F0B98019EE100A25F0C6FB62
:1056B0009FED610B0746884653EC102B2846314678
:1056C00025F0C6F83A46434625F006FC002800F0CF
:1056D000A48089EE080A9FED5A1A81EE008AB0EE86
:1056E000480A23F007FB9FED571A20EE002A20EE10
:1056F000010AB7EE009A30EE091A32EE011A89EE6D
:10570000011ABFEE00AA39EE400A32EE0A4A32EE22
:10571000000A34EE044A0120254605F8700F20EEF9
:10572000010A22EE013A24EE014A84ED020AB0EEAB
:10573000480A84ED003A84ED014A23F0DBFA9FED3C
:10574000421A20EE002A20EE010A30EE091A32EE4B
:10575000011A89EE011A39EE400A32EE0A4A32EE97
:10576000000A34EE044A20EE010A22EE013A24EE49
:10577000014A84ED050AB0EE480A84ED033A84ED4F
:10578000044A23F0B7FA9FED311A20EE002A20EEEA
:10579000010A30EE091A32EE011A89EE011A39EEC9
:1057A000400A32EE0A4A32EE000A34EE044A20EE93
:1057B000010A22EE013A24EE014A84ED080AB0EE15
:1057C000480A84ED063A84ED074A23F093FA9FEDE8
:1057D000201A20EE002A20EE010A30EE091A32EEDD
:1057E000011A89EE011A32EE0A4A39EE400A34EE05
:1057F000044A32EE000A22EE013A24EE014A20EE7B
:10580000010A84ED093A84ED0A4A84ED0B0A2C461C
:105810002078BDEC068BBDE8F081002004F8700F05
:105820002078BDEC068BBDE8F08100BF00BF00BF53
:105830002D431CEBE2361A3FCDCCCCCCCCCC004077
:10584000DB0F4940BE14FB3F31DBD43FD9398E3FDB
:10585000BCC5C73E000000002DE9F04F81B02DED22
:10586000108B84B04CF20004C4F2000420464FF4C4
:1058700088611EF0EFFD20461EF01EFE204620210E
:105880001EF0E8FD40F6E046C2F20006F08878B36C
:1058900040F2C931884201D9002028E0A169890677
:1058A00026D44FF2D461C0F2020100BF82B28A5CFA
:1058B0002260A269920600F1010217D492B28A5CBA
:1058C0002260A269920600F102020FD492B28A5CB1
:1058D0002260A269920600F1030207D492B28A5CA8
:1058E00004302260A2699206E0D500E01046F08004
:1058F000A069C00600F163814EF23410C0F20200CC
:105900004CF2012B057840F28C0A41F62018DFEDAD
:10591000B48A9FEDAF9B9FEDB0AB9FEDB28AC0F212
:10592000010BC2F2000AC2F200084FF00009B0EE0B
:1059300008FA03E0A069C00600F141812768284603
:1059400000F0E0FA407818B9DAF804005845F1D1CF
:10595000F1687278481C032AF06008F80170E9D8F1
:10596000DFE802F00E1D0231B178F2783944338954
:10597000B17011449842F17004BF03207070D9E7F0
:105980000029F8B200F0D580622840F0D7800120CD
:10599000A6F80100C6F80C9086F80390CAE7B17823
:1059A000F2783944B17011440428F170C2D1B8F8CA
:1059B0000200011D013880B29028318100F2F2808E
:1059C00002207070B6E73089814204D1B078F9B214
:1059D0008842AFD0E6E0F078F9B2884240F0E0804B
:1059E000284600F08FFA81464078002800F0A98010
:1059F00098F80000012840F0D38098F801000728AB
:105A000040F0CE8098F81900C00700F0C28098F8E6
:105A10001800032840F0BD8098F81B000528C0F04E
:105A2000B88099F8220099F80230A0F10801B1FA83
:105A300081F2D8F82C10002B4FEA521700F090801A
:105A400040F6AD5291424FF0000240F6AC5338BFE1
:105A50000122994200F2A1801740D8F8301041F29B
:105A60007D5291424FF0000240F6D86338BF0122C8
:105A700099424FF0000138BF01213943082808BF7F
:105A800007EA020198ED0D0A98ED0E1A0191B8EEA1
:105A9000C00A60EE28BAB8EEC10AD8F83C0060EE41
:105AA00028FA404200EE100AB8EEC00AD8F82000EA
:105AB00020EE28BA24F029FE57EC199B4A463B46B3
:105AC00024F0C6FE41EC1C0BD8F81C0024F01DFE8F
:105AD0004A463B4624F0BCFE41EC1D0BD8F828009A
